:020000040800F2
:10000000B03E0020A502000867190008AD170008DF
:100010006519000883050008ED1D000800000000B8
:100020000000000000000000000000000D020008B9
:10003000850500080000000051020008011A0008B0
:10004000BF020008BF020008BF020008BF0200088C
:10005000BF020008BF020008BF020008BF0200087C
:10006000BF020008BF020008BF020008BF0200086C
:10007000BF020008BF020008BF020008BF0200085C
:10008000BF020008BF020008BF020008BF0200084C
:10009000BF020008BF020008BF020008BF0200083C
:1000A000BF020008BF020008BF020008BF0200082C
:1000B000BF020008BF020008BF020008BF0200081C
:1000C000BF020008BF020008BF020008BF0200080C
:1000D000BF020008A51D0008B11D0008BF020008EE
:1000E000BF020008BF020008BF020008BF020008EC
:1000F000BF020008BF020008BF020008BF020008DC
:10010000BF020008BF020008BF020008BF020008CB
:10011000BF020008BF0200087D1A0008BF020008E5
:10012000BF020008BF020008BF020008BF020008AB
:1001300000F002F800F05AF80AA090E8000C82449F
:100140008344AAF10107DA4501D100F04FF8AFF27C
:10015000090EBAE80F0013F0010F18BFFB1A43F0A5
:1001600001031847BC3D0000DC3D00000A444FF08D
:10017000000C10F8013B13F0070408BF10F8014B06
:100180001D1108BF10F8015B641E05D010F8016B4B
:10019000641E01F8016BF9D113F0080F1EBF10F8AF
:1001A000014BAD1C0C1B09D16D1E58BF01F801CBD2
:1001B000FAD505E014F8016B01F8016B6D1EF9D555
:1001C0009142D6D37047000000230024002500266A
:1001D000103A28BF78C1FBD8520728BF30C148BFAA
:1001E0000B6070471FB51FBD10B510BD00F08FF933
:1001F0001146FFF7F7FF02F0F7F800F0ADF903B48E
:10020000FFF7F2FF03BC00F0B5F90000224B1968BC
:100210000868B0E8F00F80F30988BFF36F8F4FF0E4
:10022000000080F311884EF00D0E704700000000B2
:1002300006480068006880F3088862B661B6BFF3BC
:100240004F8FBFF36F8F00DF00BF00BF08ED00E0EE
:10025000EFF30980BFF36F8F0F4B1A6820E9F00F9F
:10026000106008B54FF0500080F31188BFF34F8F36
:10027000BFF36F8F03F01AF84FF0000080F311887E
:10028000BDE8084019680868B0E8F00F80F30988F5
:10029000BFF36F8F704700BF1C000020EFF3058095
:1002A000704700000948804709480047FEE7FEE71D
:1002B000FEE7FEE7FEE7FEE7FEE7FEE7FEE7FEE716
:1002C00004480549054A064B70470000791A0008A2
:1002D00031010008B0380020B03E0020B03A0020C4
:1002E000B03A002010B5431C02E010F8011B71B1B8
:1002F0008107FAD14FF0013202C88C1A8C4314EAFC
:10030000C211F9D0C01A0A0603D0C01E10BDC01A0F
:1003100010BD0A0401D0801E10BD0902FCD0401E91
:1003200010BD032A40F2308010F0030C00F015805D
:1003300011F8013BBCF1020F624498BF11F801CBE8
:1003400000F8013B38BF11F8013BA2F1040298BF4D
:1003500000F801CB38BF00F8013B11F0030300F0B7
:100360002580083AC0F0088051F8043B083A51F85B
:1003700004CBA0E80810F5E7121D5CBF51F8043B60
:1003800040F8043BAFF30080D20724BF11F8013BD3
:1003900011F801CB48BF11F8012B24BF00F8013B35
:1003A00000F801CB48BF00F8012B704710B5203A88
:1003B000C0F00B80B1E81850203AA0E81850B1E81E
:1003C0001850A0E81850BFF4F5AF5FEA027C24BFD4
:1003D000B1E81850A0E8185044BF18C918C0BDE8CB
:1003E00010405FEA827C24BF51F8043B40F8043B94
:1003F00008BF7047D20728BF31F8023B48BF11F849
:10040000012B28BF20F8023B48BF00F8012B7047A2
:1004100002F0FF0343EA032242EA024200F057B827
:100420004FF0000200B5134694469646203922BF8D
:10043000A0E80C50A0E80C50B1F12001BFF4F7AFD8
:10044000090728BFA0E80C5048BF0CC05DF804EBBA
:10045000890028BF40F8042B08BF704748BF20F828
:10046000022B11F0804F18BF00F8012B704710B518
:10047000044610F0030F08BF11F0030F40F0158081
:100480004FF0013E121FC0F20E8051F8043BA3EB67
:100490000E0C2CEA030C1CEACE1C08BF40F8043BEF
:1004A000F0D0A1F1040102F10402521E08DB11F8A0
:1004B000013B002B00F8013BF7D1114600F005F895
:1004C000204610BD7047704770474FF00002042966
:1004D000C0F0128010F0030C3FF4A4AFCCF1040C78
:1004E000BCF1020F18BF00F8012BA8BF20F8022BA7
:1004F000A1EB0C01FFF796BF5FEAC17C24BF00F8B7
:10050000012B00F8012B48BF00F8012B70477546FE
:1005100000F02CF8AE4605006946534620F007006F
:10052000854618B020B5FFF7CBFEBDE820404FF060
:1005300000064FF000074FF000084FF0000B21F0CD
:100540000701AC46ACE8C009ACE8C009ACE8C0099A
:10055000ACE8C0098D46704710B50446AFF3008083
:100560002046BDE81040FFF74ABE00000048704733
:100570005038002001491820ABBEFEE726000200DB
:100580007047FEE7704772B6FEE7000030B585B0F1
:10059000002410480094019402940394816941F06E
:1005A0004001816180690C4D00F0400004902246BA
:1005B0002021284600F0E4F9202000900120CDE918
:1005C0000104022003906946284600F0D5F805B0E2
:1005D00030BD0000001002400018014010B590F836
:1005E00021100022022905D00421816380F82020F7
:1005F000012010BD01680B6823F00E030B60016839
:100600000B6823F001030B6090F84030C46B0121AC
:1006100001FA03F3636080F8211080F8202010466F
:1006200010BD00002DE9F05F90F821100024022990
:1006300003D004218163012485E001680A6822F067
:100640000E020A6001680A6822F001020A603F4E49
:100650003E4FB215DFF8F4C0DFF8F090DFF8ECA001
:10066000DFF8E8B0DFF8E4E00168783F1301150235
:10067000ACF1640CA9F15009AAF13C0AABF1280BCA
:10068000AEF1140E4FF48018B14227D9B9420ED002
:10069000614512D049451DD0514518D0594518D053
:1006A000714501D1424615E0294EB14201D10122E6
:1006B00010E0274E1436B14201D110220AE0244E38
:1006C0002836B14206D0224A3C32914201D11A4624
:1006D00000E02A461E49091F0A602BE0B94213D0E8
:1006E000614517D0494522D051451DD059451DD0EF
:1006F000714501D142461AE0B14202D14FF08072F9
:1007000015E0134EB14201D1012210E0104E143613
:10071000B14201D110220AE00D4E2836B14206D076
:100720000B4A3C32914201D11A4600E02A46074961
:1007300080394A60012180F82110002180F82010C2
:10074000416B01B188472046BDE8F09F8000024020
:100750000804024070B5044600F018F90546601C14
:1007600002D004480078044400F010F9401BA04275
:10077000FAD370BD0C0000202DE9F84FDFF8C891C6
:100780000024A9F1040B23460F2709F1040AABF159
:10079000040ED1E00125A54006EA0502AA4276D161
:1007A000DFF8A8C14E68A6EB0C0866452BD00DDC1F
:1007B000032E34D005DC36B3012E19D0022E2FD1F2
:1007C0001BE0112E16D0122E2AD119E0B8F5881F81
:1007D00019D006DCB8F5803F15D0B8F5801F1FD1C1
:1007E00011E0B8F5001F0ED0B8F5041F18D10AE0CB
:1007F000CB6815E0CB681B1D12E0CB6808330FE017
:10080000CB680C330CE08B682BB1012B4FF0080345
:1008100003D0456104E0042302E0056100E0002309
:10082000FF2A01D8064601E000F104064FEA8405DC
:1008300001D9A5F12005D6F8008007FA05FC28EAC1
:100840000C0803FA05F548EA0508C6F800804D686B
:10085000ED0070D53E4DAE6946F00106AE61AD6962
:1008600024F0030605F0010500953A4D06EB050C52
:10087000DCF80850A607360F07FA06F825EA08053F
:10088000DFF8D480404503D14FF0000825E052E066
:10089000DFF8C880404502D14FF001081DE0DFF8C5
:1008A000C080404502D14FF0020816E0DFF8B48066
:1008B000404502D14FF003080FE0DFF8AC8040451F
:1008C00002D14FF0040808E0DFF8A080404502D1D3
:1008D0004FF0050801E04FF0060808FA06F848EA6C
:1008E0000508CCF808804D68D9F80060ED024D4647
:1008F00001D5164300E096432E604D68DAF800609B
:10090000AD02554601D5164300E096432E604D6872
:10091000DBF80060AD035D4601D5164300E0964369
:100920002E604D68DEF80060ED03754601D5164374
:1009300000E096432E60641C0A681646E2407FF48D
:1009400029AFBDE8F88F0000080401400000111035
:10095000001002400000014000080140000C01406E
:10096000001001400014014000180140001C01402B
:10097000C26821EA02030A4043EA0241016170476A
:100980000AB1016170470904FBE700000148806873
:10099000704700000C000020024881680278114472
:1009A000816070470C000020074810B5016841F0D5
:1009B00010010160032000F0A7F80F2000F006F8F6
:1009C00000F050F8002010BD0020024030B5054670
:1009D0001F4887B0C16941F01001C161C06906A913
:1009E00000F01000009001A800F036F90498B0B1B2
:1009F00000F052F940001749174AB0FBF1F11748CF
:100A0000491E0260416040F2E7320021C0E9032143
:100A10008160816100F018FB040003D015E000F054
:100A20003BF9E8E70D4800F03DFB04000DD136200E
:100A300000F03CF8102D07D200222946362000F0A5
:100A400043F80748056000E0012407B0204630BDA8
:100A50000010024040420F00001000401002002031
:100A6000100000200F4808B5816941F00101816143
:100A7000816901F001010091C16941F08051C161BA
:100A8000C069002200F0805000900F21901E00F0FD
:100A90001BF80548416821F0E06141F000714160B8
:100AA00008BD00000010024000000140002809DBE2
:100AB00000F01F02012191404009800000F1E02078
:100AC000C0F8001170470000F0B40E4B1B680C46D4
:100AD000C3F30223C3F10705042D00D90425191D12
:100AE000072901D2002300E0DB1E012606FA05F1EA
:100AF000491E214099409E40761E16403143F0BC6D
:100B000001F075B90CED00E0064900F00702086835
:100B10004FF6FF03184040EA0220034A10430860E2
:100B2000704700000CED00E00000FA052DE9F047E9
:100B30000F46050061D0434E306800F00700B84210
:100B400009D2306820F0070038433060306800F088
:100B50000700B84251D128683B4C810712D54007A5
:100B600003D5606840F4E06060602878000703D532
:100B7000606840F4605060606068A96820F0F00030
:100B8000084360602878C00728D06868012810D022
:100B90002168022810D0890700292EDA616821F027
:100BA000030101436160FFF7F1FE804641F288399D
:100BB0000DE021688903EFE78901EDE7FFF7E6FE25
:100BC000A0EB0801494502D90320BDE8F087606821
:100BD000696800F00C00B0EB810FEFD1306800F0D5
:100BE0000700B8420BD9306820F007003843306066
:100BF000306800F00700B84201D00120E5E728780E
:100C0000400705D56068E96820F4E060084360604B
:100C10002878000706D56068296920F4605040EA0A
:100C2000C100606000F058F86168084AC1F3031120
:100C3000515CC8400649086006480068FFF7C6FED8
:100C40000020C2E70020024000100240FA3E0008E7
:100C500018000020100000200F2202600C4A536888
:100C600003F003034360536803F0F00383605368A9
:100C700003F4E063C36052684FF4E06303EAD20216
:100C800002610448006800F0070008607047000037
:100C900000100240002002400448054900684968ED
:100CA000044AC1F30221515CC8407047180000207B
:100CB000001002400A3F00080448054900684968DE
:100CC000044AC1F3C221515CC8407047180000209B
:100CD000001002400A3F00080E4A51680E4801F019
:100CE0000C03042B11D0082B0FD10C48C1F3834304
:100CF000C903C05C0AD55168084AC1F34041921E3D
:100D0000515C054A5043B0FBF1F070470449484339
:100D1000704700000010024000127A00EA3E00080E
:100D200000093D002DE9F84F040070D02078C04D37
:100D3000C00749D06868C0F38100012807D06868FF
:100D4000C0F38100022809D16868C00306D528686D
:100D5000800339D560680028E7D035E06068B0F5D9
:100D6000803F0BD010B1B0F5A02F11D0286820F42F
:100D700080302860286820F4802002E0286840F451
:100D800080302860606890B1FFF700FE06460AE0F8
:100D9000286840F480202860F0E700BFFFF7F6FDE8
:100DA000801B642873D828688003F7D50CE0FFF710
:100DB000EDFD064605E000BFFFF7E8FD801B642857
:100DC000F0D828688003F7D420789A4E80074FF037
:100DD00001094FF0000839D5686810F00C0F07D0F2
:100DE0006868C0F38100022809D16868C00306D48E
:100DF0002868800714D52069012808D110E02069EF
:100E0000B0B1C6F80090FFF7C1FD074605E00AE162
:100E1000FFF7BCFDC01B0228C4D828688007F7D59F
:100E20002868616920F0F80040EAC10028600DE000
:100E3000C6F80080FFF7AAFD074604E0FFF7A6FD0D
:100E4000C01B022823D828688007F7D42078000721
:100E50002CD57948A169D9B1C0F80090FFF796FD6B
:100E6000074604E0FFF792FDC01B02280FD8686A0E
:100E70008007F7D571484FF4FA510068B0FBF1F0E4
:100E8000009000BF0098411E0091FAD20EE080E071
:100E9000C0F80080FFF77AFD074604E0FFF776FD13
:100EA000C01B022875D8686A8007F7D420784007ED
:100EB00060D5E8690027C00008D4E86940F0805098
:100EC000E861E869012700F0805000905C48016803
:100ED000C90513D40168834641F480710160FFF7AE
:100EE00055FD824606E000BFFFF750FDA0EB0A006B
:100EF00064284ED8DBF80000C005F5D5E06801286D
:100F00000AD008B1052813D0286A20F00100286211
:100F1000286A20F0040002E0286A40F001002862FC
:100F2000E06841F2883B98B1FFF730FD82460BE064
:100F3000286A40F004002862EEE700BFFFF726FDB4
:100F4000A0EB0A0159455AD8286A8007F6D50CE06B
:100F5000FFF71CFD824605E0FFF718FDA0EB0A0134
:100F600059454CD8286A8007F6D41FB1E86920F0AB
:100F70008050E861E06988B36968C1F381010229A2
:100F800044D00228C6F8608004D0FFF7FFFC044676
:100F900038E034E0FFF7FAFC074604E0FFF7F6FC20
:100FA000C01B02282BD828688001F7D4206AB0F52E
:100FB000803F05D16868A16820F40030084368606C
:100FC000D4E908010843696821F474110843686092
:100FD000C6F86090FFF7DAFC044606E025E000BFA3
:100FE000FFF7D4FC001B022809D828688001F7D538
:100FF0001BE000BFFFF7CAFC001B022802D9032038
:10100000BDE8F88F28688001F4D40EE00128F7D0FD
:101010006868226A00F48031914204D1616A00F468
:101020007010884201D00120EAE70020E8E70000C4
:10103000001002400000424280044242180000209A
:10104000007000407047704710B5040003D094F85A
:101050003D0010B107E0012010BD002084F83C00E5
:10106000204600F01EF8022084F83D00211D206873
:1010700000F00AFD012084F8460084F83E0084F860
:101080003F0084F8400084F8410084F8420084F86E
:10109000430084F8440084F8450084F83D000020B3
:1010A00010BD704790F83D10012901D00120704714
:1010B000022180F83D100168CA6842F00102CA604E
:1010C00000680E4988420ED00D4988420BD0B0F11D
:1010D000804F08D00B49884205D00B49884202D086
:1010E0000A49884204D1816801F00701062903D02A
:1010F000016841F00101016000207047002C0140AF
:10110000003401400004004000080040000C004092
:1011100070472DE9F04104460068C66805694FF044
:101120000007A90713D5B10711D5F91E01610120E8
:101130002077206880698007204602D0FFF7E8FF0B
:1011400004E000F07EF8204600F07CF8277768077E
:1011500016D5700714D521686FF0040008610220CD
:1011600020772068806910F4407F204602D0FFF786
:10117000CFFF04E000F065F8204600F063F8277721
:10118000280715D5300713D521686FF008000861CE
:10119000042020772068C0698007204602D0FFF72E
:1011A000B7FF04E000F04DF8204600F04BF8277739
:1011B000E80616D5F00614D521686FF01000086116
:1011C000082020772068C06910F4407F204602D0B4
:1011D000FFF79EFF04E000F034F8204600F032F8FC
:1011E0002777E80708D0F00706D021686FF00100E4
:1011F0000861204600F028F8280608D5300606D5F4
:1012000021686FF0800008612046FFF71BFF680629
:1012100008D5700606D521686FF0400008612046A9
:1012200000F01CF8A8060AD5B00608D521686FF0B2
:10123000200008612046BDE8F041FFF704BFBDE88B
:10124000F08170477047000000680349884201D16F
:10125000FFF7A2BB704700000010004070477047C6
:1012600070470000F8B5016804460868CA684B6911
:1012700010F00F0F4FF0000559D003F0010602F4F3
:101280009077374365D0C10705D0D10503D5616C90
:1012900041F001016164410705D5D90703D0616CB4
:1012A00041F002016164810705D5D90703D0616C63
:1012B00041F004016164010707D502F020013143C8
:1012C00003D0616C41F008016164616C00293AD07F
:1012D000800604D5900602D5204600F052FC206816
:1012E0004069616CC0F38010090700D460B32046E8
:1012F00000F020FC20684069400621D520681430A9
:1013000050E8001F21F0400140E80012002AF5D10A
:10131000E06BA8B16D494163E06BFFF783F90028EA
:1013200011D0E06B416B01B0BDE8F0400847830687
:101330000FD593060DD52046BDE8F84000F021BC3E
:101340002046FFF78DFFF8BD2046FFF789FF656453
:10135000F8BD266B2023012E7CD1C6067AD5D60691
:1013600078D508684868009048694FF00206400642
:1013700040D5E16B086840680004000CE8D0A28DFD
:101380008242E5D9E085886920282DD020680C307C
:1013900050E8001F21F4807140E80012002AF5D1C6
:1013A0002068143050E8001F21F0010140E80012CD
:1013B000002AF5D12068143050E8001F21F04001C8
:1013C00040E80012002AF5D184F8423025632068F5
:1013D0000C3050E8001F21F0100140E80012002AF4
:1013E000F5D1E06BFFF7FAF86663A08DE18D401A46
:1013F00081B22AE0A08DE18D401A81B2E08D0028F3
:10140000A6D00029A4D022680C3252E8000F20F4A4
:10141000907042E80007002FF5D12068143050E8A2
:10142000002F22F0010240E80027002FF5D184F8B8
:101430004230256320680C3050E8002F22F0100263
:1014400040E80023002BF5D166632046FFF707FF35
:10145000F8BDFFE705062BD5150629D594F8410000
:101460002128F5D1A068B0F5805F01D12069B0B125
:10147000206A411C2162216800784860E08C401E8F
:101480000004000CE084E3D12068C16821F08001F1
:10149000C1602068C16841F04001C160D8E7206A9E
:1014A0000088C0F308004860206A801C2062E5E7DD
:1014B0004006CDD55006CBD5CA68204622F0400262
:1014C000CA6084F8413000F05FF9C1E7251B0008CD
:1014D00070B5040004D094F84100002510B106E076
:1014E000012070BD84F84050204600F023F82420ED
:1014F00084F841002068C16821F40051C160204691
:1015000000F0A0FB2068016921F49041016120688E
:10151000416921F02A0141612068C16841F400510C
:10152000C1606564202084F8410084F8420065634E
:10153000002070BD70B586B0002400940194029420
:1015400003942E4E03682E49022003222D4DB342F0
:1015500026D18B6943F480438B618B6903F480430C
:1015600004938B6943F004038B618969039201F052
:10157000040104910102CDE9001069462846FFF7F5
:10158000FBF82815CDE90004694628460294FFF7C8
:10159000F3F8002205212520FFF796FA252028E000
:1015A000194EB34227D1CB6943F40033CB61CB69E9
:1015B00003F4003304938B6943F004038B6189695E
:1015C000039201F0040104910421CDE90010694661
:1015D0002846FFF7D1F80820CDE9000469462846DF
:1015E0000294FFF7C9F8002205212620FFF76CFAC4
:1015F0002620FFF75BFA06B070BD000000380140FE
:1016000000100240000801400044004090F84230C1
:10161000202B01D00220704721B11AB100230363AF
:1016200000F06CBB012070472DE9F04107461E4ECB
:1016300000681C49002506F106083446884213D18B
:10164000608802280AD2327808F80020401C81B253
:1016500061800D2A03D1A01D00F062FF6580012288
:1016600011491248FFF7D2FF11493868884217D153
:10167000608802280BD2327808F80020401C81B222
:1016800061800D2A04D10848801D00F049FF658063
:10169000BDE8F0410548012203494830FFF7B6BFD5
:1016A000BDE8F081003801400400002080010020E6
:1016B000004400402DE9F843044690F84100984664
:1016C00016460D46202802D00220BDE8F88385B1D9
:1016D0007EB100206064212084F84100FFF756F9B4
:1016E000A6848146E684A0682027B0F5805F02D0FA
:1016F00003E00120E9E7206910B12E4600250EE045
:1017000000260CE08021204600F013FBA8B9C6B1EA
:1017100016F8010B21684860E08C401EE084E08CE4
:101720004B464FF00002CDF800800028EAD14FF080
:101730004001204600F0FDFA40B184F841700320DA
:10174000C3E735F8020BC0F30800E3E784F8417003
:101750000020BAE790F84130202B01D002207047DA
:1017600079B172B101628284C28400214164212175
:1017700080F841100068C16841F08001C16000201C
:101780007047012070470000074B9968884201D1DB
:10179000002018709878012804D100229988D86810
:1017A000FFF7EEB8704700009C000020FEE7000045
:1017B00070B5064C012566780EB96570A0600129E8
:1017C00003D1A060A570E260A38070BD9C000020E2
:1017D00070B5124C0646A06800281ED0207800285C
:1017E0001BD13046FEF77EFD85B2402231460C48C3
:1017F000FEF73DFE01202070A078012806D02A4681
:101800003146A068BDE87040FFF7A4BFA188E0683A
:10181000BDE870400122FFF7B3B870BD9C00002006
:101820002C1B002010B5044A0021044800F032FEB1
:101830000349086010BD0000C43E00086919000893
:10184000000000202DE9F04186B0002424480094D7
:10185000019402940394816941F0100181618169CE
:1018600001F010010491816941F0040181618169F5
:1018700001F004010491816941F0200181618169D5
:1018800001F020010491816941F0080181618069C2
:10189000144F00F008000490002280213846FFF722
:1018A0006FF8DFF84480002220214046FFF768F8F7
:1018B000802001250226CDE90005CDE902466946D2
:1018C0003846FEF759FF2020CDE90005CDE9024654
:1018D00069464046FEF750FF06B0BDE8F0810000C3
:1018E0000010024000140140000C01400C4810B5EB
:1018F0000A4901604FF4E1314160002181600C220E
:10190000C160C0E904128161C161FFF7E1FD0028F7
:1019100003D0BDE81040FEF736BE10BD00380140D0
:1019200080010020F8B54FF0FF350B4E00952C4696
:10193000706800680168890601D54068C4B20094E7
:10194000641C05D001226946044800F0FAFCEEE769
:10195000034800688047F8BDB40000201836002016
:10196000E0000020FEE7FEE786B0002308224FF4E7
:101970001651012001F05EFD0024142213A16846D7
:10198000FEF714FD012216491648FFF73FFE164DDB
:10199000164EDFF85C804FF47A77012000F03EFDB0
:1019A000641CBC42F9DB2888002418B12021304691
:1019B000FEF7DEFF20214046FEF7DAFF0DA0FFF71D
:1019C00007FF0A20FEF7C6FEE7E70000000102035A
:1019D0000405060708090A0B0C0D0E0F1011000074
:1019E000040000208001002008000020000C0140BD
:1019F0000018014068656C6C6F2C343835000000AD
:101A000010B54FF0E020006902F0A6F8012803D0DD
:101A1000BDE8104001F0D4BD10BD30B58FB0282115
:101A20006846FEF7FDFC14210AA8FEF7F9FC012127
:101A30000804CDE900100024029402250491CDE9A8
:101A400007504FF4E01009906846FFF76BF908B1B2
:101A500072B6FEE70F20CDE90A054FF48060CDE9AC
:101A60000C4002210AA80E94FFF760F8002801D06C
:101A700072B6FEE70FB030BD704700000148FFF7B7
:101A800048BB000010020020F0B50268204C214D38
:101A9000214E224F224B4FF0804CA04209D0984259
:101AA00007D0604505D0A84203D0B04201D0B8426B
:101AB00004D122F0700E4A6842EA0E02A04209D018
:101AC000984207D0604505D0A84203D0B04201D06B
:101AD000B84203D122F44075CA682A434D6922F006
:101AE00080022A4302608A68C2620A688262A04257
:101AF00001D0984201D10969016301214161016965
:101B0000C90703D0016921F001010161F0BD0000A6
:101B1000002C01400004004000080040000C004080
:101B20000034014010B5406A0021C185C184FFF72F
:101B300097FB10BD01680C3151E8002F22F4907220
:101B400041E80023002BF5D10168143151E8002F42
:101B500022F0010241E80023002BF5D1016B01299D
:101B600009D101680C3151E8002F22F0100241E840
:101B70000023002BF5D1202180F8421000210163C1
:101B8000704708B590F84210222901D0022008BD04
:101B900082684FF480539A4201D1016921B1816A70
:101BA0009A421BD04AB10AE00268816A5268C2F3C5
:101BB00008020A80816A891C08E0026972B1026821
:101BC000526802F07F020A70816A491C8162C18DED
:101BD000491E0904090CC18503D01BE00268526844
:101BE000F1E70168CA6822F02002CA600168CA6889
:101BF00022F48072CA6001684A6922F001024A61D7
:101C0000202180F8421000214163026B012A03D099
:101C1000FFF70AFD002008BD016301680C3151E89F
:101C2000002F22F0100241E80023002BF5D10168BB
:101C30000A68D20602D50A6849680091818DFFF7CB
:101C40000EFBE7E770B5044600680169E26821F41D
:101C50004051114301612169A0680843616908434B
:101C60002168CA6841F20C639A430243CA60206843
:101C70004169A26921F44071114341611E49206804
:101C8000884202D1FFF718F801E0FFF705F800EBF2
:101C9000C00101EB0012606864218000B2FBF0F328
:101CA000B3FBF1F36FF018067343B2FBF0F5B2FB30
:101CB000F0F605EB8305322303EB0515B5FBF1F5D3
:101CC000B6FBF1F605F0F00505EB0615B2FBF0F6F4
:101CD000B2FBF0F0B0FBF1F06FF01802504306EBEE
:101CE000800003EB0010B0FBF1F0216800F00F0062
:101CF0002844886070BD0000003801408162828500
:101D0000C28500214164222180F84210016921B17D
:101D10000168CA6842F48072CA6001684A6942F088
:101D200001024A610068C16841F02001C1600020E1
:101D300070472DE9F843984617460D460446089E1D
:101D400024E0701C22D0FEF721FEA0EB0800B04278
:101D50001AD8CEB12068C168490717D5802D15D093
:101D6000402D13D00168C94309070FD4016800252D
:101D7000406800902046FFF7DDFE0820606484F88C
:101D800040500120BDE8F8830320FBE7206800688D
:101D900035EA000004D00020B842D2D00020F1E79C
:101DA0000120F9E70148FFF75DBA0000800100203B
:101DB00038B50D48FFF756FA0B4C206800688006CE
:101DC00002D52046FFF7AEFD20680168090703D55C
:101DD00041680168416800910168490602D56FF0C9
:101DE0004001016038BD0000C8010020FEE709077E
:101DF000090E002804DB00F1E02080F80014704791
:101E000000F00F0000F1E02080F8141D7047000082
:101E100070B5064C0D4606492288401CFEF781FA33
:101E20002088401C2880002070BD00007C0100201C
:101E30002D380020F8B50E460546002401F050FB71
:101E400028BB3088022823D3684601F075F8009833
:101E500041780A0281781143C278491C1302027941
:101E600089B21A43500704D0012000EBD200C0B25F
:101E700001E0C2F3C7005AB16B78834208D1002356
:101E8000A81C00F05DF910B100F047FF044600E027
:101E900003242046F8BDF8B50E460546002401F09F
:101EA0001FFB20BB3088022822D3684601F044F88B
:101EB000009841780A0281781143C278491C1302C4
:101EC000027989B21A43500704D0012000EBD200F6
:101ED000C0B201E0C2F3C70052B16B78834207D1B0
:101EE000A81C00F06BF910B100F017FF044600E0E9
:101EF00003242046F8BDF8B50E460546002401F03F
:101F0000EFFAF8B9308802281BD3684601F014F8BC
:101F1000009841780A0281781143C278491C130263
:101F2000027989B21A430CD06878B0EB420F08D11D
:101F30000023A81C00F080F920B100F0EEFE04465A
:101F400000E003242046F8BDF8B50E4605460024FF
:101F500001F0C6FAF0B9308802281AD3684600F0BA
:101F6000EBFF009841780A0281781143C278491C3E
:101F70001302027989B21A430BD06878B0EB420F92
:101F800007D1A81C00F08CF920B100F0C6FE044671
:101F900000E003242046F8BDF8B50D4606460024AF
:101FA00001F09EFA68BB288802282CD3684600F00E
:101FB000C3FF0098417805790A0281781143491CD2
:101FC0008FB2C17845EA012541790A02817911432E
:101FD000C279491C1302027A89B21A437378B3EBAF
:101FE000450F0FD101230A3000F026F930B9002344
:101FF0002A463946B01C00F01FF910B100F08DFEE2
:10200000044600E003242046F8BD38B509880024C2
:1020100005290BD141780A0281781143491C0279C4
:1020200089B21AB9C278FF2A03D012B1032420461C
:1020300038BD00228DF80120C078FF280CD08DF823
:10204000002001231A46684600F07AF80028EED0F6
:1020500000F063FE0446EAE701208DF80000F0E797
:1020600010B509880024052902D00324204610BD9C
:10207000417801230A028178C01C1143491C89B2AE
:102080001A4600F0D9F80028F0D000F046FE0446C9
:10209000ECE738B5054608880024052802D001F091
:1020A0001FFA18B3684600F047FF68782A790102E2
:1020B000A8780843401C81B2E87842EA00220098E0
:1020C0005307457904D0012303EBD203DBB201E0CF
:1020D000C2F3C70352B1AB4208D10123801D00F007
:1020E0002FF820B100F019FE044600E0032420463A
:1020F00038BD38B508880024052802D001F0F0F971
:10210000D0B1684600F018FF009841780A02817843
:102110001143C278491C1302027989B21A434379E8
:10212000B3EB420F08D10123801D00F085F820B1E8
:1021300000F0F3FD044600E00324204638BD000013
:102140002DE9F0470C469046012106464FF0000964
:1021500001EBD80500F082FE1649641E01EBC007B2
:102160001548083F4188A0B200EB0802402A1BD85E
:10217000401AC0F3CC0400F0070A0AE03819641CC6
:1021800016F8013BA4B20822514601F0AFF96D1ECA
:10219000ADB2012DF2D818F0070207D03378381904
:1021A000514601F0A3F901E04FF001094846BDE8AE
:1021B000F08700008C1B0020AC0000202DE9F047C8
:1021C0000C469046012106464FF0000901EBD80568
:1021D00000F044FE1649641E01EB40071548BF1E7F
:1021E0000188A0B200EB0802102A1BD8401AC0F3E5
:1021F000CC0400F0070A0AE03819641C16F8013B09
:10220000A4B20822514601F071F96D1EADB2012D44
:10221000F2D818F0070207D033783819514601F088
:1022200065F901E04FF001094846BDE8F08700007C
:102230006C1B0020AC0000202DE9F04115460F4634
:102240000446002600F00AFE00EBC00101EB00107E
:1022500011497F1E01EBC0011048C839C288B8B2CD
:102260004319642B13D8801A80B20DE014F8012BA7
:10227000120221F8102014F8013B1A4321F8102013
:10228000401C6D1E80B2ADB2002DEFD100E00126E2
:102290003046BDE8F08100008C280020AC00002012
:1022A0002DE9F04115460F460446002600F0D6FD04
:1022B00000EBC00101EB001011497F1E01EBC001D2
:1022C0001048C8398288B8B24319642B13D8801AD1
:1022D00080B20DE014F8012B120221F8102014F83E
:1022E000013B1A4321F81020401C6D1E80B2ADB294
:1022F000002DEFD100E001263046BDE8F08100005E
:102300000C1C0020AC00002050B1016841B14268B3
:1023100032B1C1688068814204D3081A101A02E001
:1023200000207047401A401E704740B139B132B1A9
:1023300000230361C36080E80E0001207047002085
:1023400070471CB500230193009301AB00F004F823
:10235000002800D001981CBD2DE9F0479946089B44
:102360001446050088460FD0286868B1686858B1DF
:10237000B8F1000F08D03CB12846FFF7C5FF18B1EF
:10238000A04204D2D90702D00020BDE8F087A042C5
:1023900000D20446EE686868871BA74200D3274630
:1023A00028683A4630444146FDF7BBFFF01908EB78
:1023B0000701E61B04D032462868FDF7B2FF30461D
:1023C0006968814200D80020E8602B691BB1BA1906
:1023D000012128469847B9F1000F02D0B919C9F870
:1023E00000100120D1E70000FEF7DEFAFFF715FB31
:1023F000FFF728FAFFF77AFAFEF7C8F800231A4623
:1024000019460548FFF7D4F900F016F8FFF70AFA65
:1024100000F024F8FEE700008001002010B5EFF383
:10242000058111B16FF0050403E0002408B100F04C
:1024300061FE204610BD0000EFF3058010B16FF083
:10244000050070470448016811B14FF0FF30704734
:1024500001210160002070476C00002010B5EFF3EF
:10246000058010B16FF0050010BD08480168012912
:1024700002D04FF0FF3010BD054A002182F8141D34
:102480000221016000F0C6FE002010BD6C0000209B
:102490000BE000E02DE9FF414FEA01034FF000059A
:1024A000EFF30581039549BB40B380271821002431
:1024B0004AB3166806B1344696691EB13146761E97
:1024C000382E02D21679F60703D0002004B0BDE8FA
:1024D000F081566906B1B708D2F808C0BCF1000F08
:1024E0000DD0D5685C2D18D312693AB136B18DE89C
:1024F00006103A46214601F004FB03900DE0D66831
:102500005EB912694AB903AACDE90012BAB22146EE
:1025100001F0CAFA012800D003950398D6E700001D
:1025200070B50D460A460446014664230E48FFF77F
:10253000C1F8002C0CD0002D0AD022780B490C4891
:10254000002332B1012A07D0022A01D1012088805C
:1025500070BD8B80012201E08B800022BDE87040BD
:102560002021FEF70DBA00008001002004000020A9
:10257000000C01402DE9F041134C0F460546E6687A
:102580002068001D00F070FC681C07D137B121687D
:10259000BDE8F0410D48091D00F0C2BC206835447B
:1025A000B5424560216805D2A06BBDE8F041091D28
:1025B00000F09EBC606B091D00F09AFCA06A854289
:1025C00000D2A562BDE8F0811C0000204807002071
:1025D0002DE9F041054600F0B5FC2D4CA068401CEB
:1025E000A06020682B4F10B1606930B32BE02560EC
:1025F000A068012827D1002606EB860007EB8000A3
:1026000000F068FC761C382EF6D3234800F062FCFC
:102610002148143000F05EFC1F48283000F05AFCBE
:102620001D483C3000F056FC1B48503000F052FC76
:10263000194860631430A06305E02068E96AC06A45
:10264000884200D82560606A401C60626864E86A5D
:102650002169884200D9206100EB800007EB8000EF
:10266000291D00F05DFC00F08DFC606900280CD095
:102670002068E96AC06A884207D208494FF0805052
:102680000860BFF34F8FBFF36F8FBDE8F08100008C
:102690001C00002098020020F806002004ED00E055
:1026A00038B500F04FFC104C2068C8B90F4800F056
:1026B00011FC0E48143000F00DFC0C48E0601430A2
:1026C00020610A4B0020F03B009003F150021021E2
:1026D0000A2000F08BFF206010B105A100F0D4FCAF
:1026E000BDE8384000F04EBC580000204C080020E7
:1026F000546D72510000000030B4026C0B46002A89
:102700000BD0C1681144C1608468A14201D3016843
:10271000C16030BC1846FDF704BE30BC70472DE9DF
:10272000F041856B174604460026026C82B1C7B1A2
:10273000E068FDF7F6FDE168206C091AE1602268A7
:10274000914202D2A168081AE060022F16D017E069
:102750002068A8B9A06801F077FA06460020A060BA
:102760000EE06068FDF7DDFD216C60680844606084
:10277000A168884204D32068606001E005B16D1E45
:102780006D1CA5633046BDE8F08110B5044690F895
:10279000590058B101280CD002280FD0502080F3E6
:1027A0001188BFF34F8FBFF36F8FFEE7206B00F0F0
:1027B000FDFB2046BDE8104000F0F8BB10BD000056
:1027C00010484FF44061420706D0C01D0D4920F06B
:1027D0000700411AC1F540610B4A00230144C2E9D8
:1027E00000030839183A21F0070111604B600B60B3
:1027F0000B1AC0E9001393604FF000405360506122
:10280000704700002C0F002088000020144E154C4B
:10281000A6F29C474FF08058DFF84C9012E000BFC2
:1028200000F090FBF068C568281D00F01DFBA06853
:10283000401EA0606068401E606000F0A3FB284658
:10284000FFF7A3FF60680028EAD138680128F9D9AA
:10285000C9F80080BFF34F8FBFF36F8FF2E700001E
:10286000340700201C00002004ED00E070B51D4678
:10287000049C51B1C4F80020C4E90F010121204695
:1028800000F0E8FE84F84C5070BD2460F4E70000CE
:102890002DE9F05F8846DDE90B94154683469100EB
:1028A0009A460A9EA522206BFDF7B2FD6FF0030148
:1028B000206B01EB8501084420F00707780707D05B
:1028C000502080F31188BFF34F8FBFF36F8FFEE767
:1028D0000025B8F1000F0FD05FF00000221818F8A3
:1028E000001082F8341018F8001011B1401C1028A4
:1028F000F4D384F8435001E084F83450382E00D3E8
:102900003726E662C4E91365201D00F0EEFA04F1F3
:10291000180000F0EAFA2461C6F138006462A06190
:10292000656584F8585052465946384600F070FAAA
:102930002060B9F1000F01D0C9F80040BDE8F09F58
:1029400030B5114900E011460A688242FBD34B685A
:102950005C18844203D140681844486008464368C4
:102960001C18944209D1084C183C2468A24209D092
:1029700052681A4442600A6812680260814200D0BC
:10298000086030BD0460F9E78800002070B50024BD
:1029900041600B4D0061914206D8D11A8269914283
:1029A00006D2011D286907E09A4203D2994201D359
:1029B000012403E0011DE86800F09AFA204670BD8A
:1029C0005800002010B5044600F0BCFAA06B28B1F6
:1029D0005FF0000400F0D6FA204610BD0124F9E7AC
:1029E00030B589B03C4D6EE00498002806DADDE988
:1029F0000601059A90470498002864DB069C6069EC
:102A000010B1201D00F030FA03A800F0D7F80246FC
:102A100004980A2857D2DFE800F00505052D334A4F
:102A200005052D3394F8280040F0010084F82800B3
:102A30000599A069059B01442046FFF7A7FF68B3ED
:102A4000216A2046884794F8280040073BD500209B
:102A500000900598A169002342181946204601F00C
:102A6000FDF9D8B9502080F31188BFF34F8FBFF321
:102A70006F8FFEE714F8280F20F00100207022E08D
:102A800094F8280040F0010084F828000598A0611F
:102A900028B1811813462046FFF778FF13E0502035
:102AA00080F31188BFF34F8FBFF36F8FFEE794F869
:102AB0002800810703D4204600F078FA03E020F0D4
:102AC000010084F82800002204A9286800F016FFFD
:102AD000002889D109B030BD580000202DE9FC4103
:102AE0000F46054600F0DAFB01A800F067F804463F
:102AF000019818B101F020F9BDE8FC81254EAFB175
:102B000030690068D0B30027291B3A46306800F0CE
:102B1000CFFA01F011F90028EED11F494FF0805093
:102B20000860BFF34F8FBFF36F8FE5E7A542EBD887
:102B300001F002F9F0682746C068C468201D00F063
:102B400093F994F82800410719D5A0692B4641193B
:102B50003A462046FFF71AFFA8B100200346014677
:102B600000902A46204601F079F960B9502080F3A0
:102B70001188BFF34F8FBFF36F8FFEE707E020F0A0
:102B8000010084F82800216A20468847B4E701271D
:102B9000BAE700005800002004ED00E00648416B51
:102BA000096829B1416BC968C96849688162704781
:102BB0004FF0FF31FAE700001C00002070B5054619
:102BC00000F0D8FF064E0446B068844203D200F0FD
:102BD00009F8012000E0002028602046B46070BDA4
:102BE00058000020F8B5194D20E0C068C468066898
:102BF000201D00F039F9216A2046884794F8280002
:102C0000400713D5A0693044B04206D92461606002
:102C1000211DE86800F06CF908E000200346014639
:102C200000903246204601F019F938B1E868016891
:102C30000029DAD12969C5E90310F8BD502080F3D5
:102C40001188BFF34F8FBFF36F8FFEE7580000204E
:102C500008484068401C4FF0500080F3118804D0B1
:102C6000BFF34F8FBFF36F8FFEE7BFF34F8FBFF3FD
:102C70006F8FFEE7900000200346002012B19943B9
:102C800002D070470B42FCD001207047074CE0682F
:102C9000016841B1C0680021D0F80000FFF71EFFB5
:102CA000FFF79EFEF3E701210020F7E75800002020
:102CB0002DE9F041044600F045F994F9455004F13E
:102CC000240609E0606A48B1304600F0FDFF08B113
:102CD00000F03EFA6D1E6DB2002DF3DC4FF0FF36B2
:102CE00084F8456000F04EF900F02CF994F9445056
:102CF00004F1100709E0206948B1384600F0E4FF0C
:102D000008B100F025FA6D1E6DB2002DF3DC84F8D9
:102D10004460BDE8F04100F035B9002804D0012836
:102D200003D0072803D004207047022070470620F4
:102D3000704700002DE9F0410546002700F0AEFA8B
:102D4000324E306808B9FFF73BFD706905424ED13D
:102D5000C5B3083568070ED005F00700C0F10800BC
:102D60000544680707D0502080F31188BFF34F8FC8
:102D7000BFF36F8FFEE72DB37068854237D82348C5
:102D8000183001460C6801E020460C466168A942F3
:102D900002D221680029F7D131688C4227D0076818
:102DA0002168016060680837411B10290FD960193C
:102DB000420708D0502080F31188BFF34F8FBFF334
:102DC0006F8FFEE713E041606560FFF7B9FD616852
:102DD0007068401A7060B268904200D2B06070694A
:102DE00001430020C4E90001F068401CF06000F0DD
:102DF000A3FF780707D0502080F31188BFF34F8FCF
:102E0000BFF36F8FFEE73846BDE8F0817000002009
:102E100010B5031F4FF080741C601B1F21F00101CF
:102E20001960191F024B0B60143940380A6010BD3D
:102E3000512C000808B5074E074D4FF0FF34002312
:102E400000941A460121306800F070FA2868804723
:102E5000F5E70000B4000020E400002001484079BC
:102E600070470000BC000020D0E9013201699A607F
:102E7000D0E901235A604A68824201D182684A60DF
:102E8000002202610868401E086008687047000060
:102E9000044908680A688069D26A0968C2F1380280
:102EA0008A6170471C000020034B036003F15C0043
:102EB000086080201060704774080020044B036095
:102EC00003F15C0008604FF48070106070470000F0
:102ED000D00A002000F108014FF0FF32C0E90112D2
:102EE000C1600161002101607047002101617047EC
:102EF00030B50B685A1C02D000F1080202E00269EA
:102F000004E02246546825689D42FAD953684B6014
:102F100099608A60516008610168491C016030BD98
:102F200042684A6093688B60936859609160086159
:102F30000168491C01607047014901607047000049
:102F400031360020502080F31188BFF34F8FBFF33C
:102F50006F8F0A494868401C486001280CD1084816
:102F6000006810F0FF0F07D0502080F31188BFF3E6
:102F70004F8FBFF36F8FFEE7704700009000002077
:102F800004ED00E00849486828B1401E486001D1BE
:102F900080F311887047502080F31188BFF34F8F62
:102FA000BFF36F8FFEE700009000002070B500288F
:102FB0002AD0164DA0F1080460686969084207D15B
:102FC000502080F31188BFF34F8FBFF36F8FFEE760
:102FD00022683AB1502080F31188BFF34F8FBFF3BE
:102FE0006F8FFEE78843606000F058F96068696899
:102FF000084468602046FFF7A3FC2869401C28614C
:10300000BDE8704000F098BE70BD00007000002068
:103010004FF0E02000210161816105494FF47A728F
:103020000968B1FBF2F1491E416107210161704756
:103030001800002010B5FDF731F9114910280ED302
:1030400000F1E02090F8F0030A78904207D2502077
:1030500080F31188BFF34F8FBFF36F8FFEE70948EE
:103060000068896800F4E060884207D9502080F346
:103070001188BFF34F8FBFF36F8FFEE710BD0000C5
:10308000900000200CED00E010B5084B002200BFBE
:1030900053F832401CB1521C082AF9D310BD43F832
:1030A000321003EBC201486010BD0000580200203E
:1030B00070B515460E460446FFF744FF94F94410D8
:1030C0000020491C01D184F8440094F94510491CA2
:1030D00001D184F84500FFF755FFA06B28B92A46B7
:1030E000314604F1240000F051F82046BDE870405C
:1030F000FFF7DEBD10B5020014D00F48006B38B1E9
:10310000502080F31188BFF34F8FBFF36F8FFEE71E
:1031100000F0C4F800211046FFF72CFA00F00CFE76
:10312000002807D105494FF080500860BFF34F8F4A
:10313000BFF36F8F10BD00001C00002004ED00E005
:1031400002490A6A0260C968416070471C00002099
:1031500001490120C86170471C00002010B50C46D1
:1031600050B1094909681831FFF7C2FE2046BDE891
:1031700010400121FFF7FEB9502080F31188BFF302
:103180004F8FBFF36F8FFEE71C00002070B5144611
:103190000D4668B10A4909681831FFF7C1FE0CB144
:1031A0004FF0FF3521462846BDE87040FFF7E2B9F1
:1031B000502080F31188BFF34F8FBFF36F8FFEE76E
:1031C0001C00002010B51446030011D01048026BFB
:1031D000B2B1026841F000419161016818461831AE
:1031E000FFF79EFE2046BDE810400121FFF7C2B95F
:1031F000502080F31188BFF34F8FBFF36F8FFEE72E
:10320000502080F31188BFF34F8FBFF36F8FFEE71D
:103210001C00002030B587B00024039405AA04A93F
:1032200003A80494FFF740FEDDE903010094CDE913
:103230000110002315A11748059A00F062FC164DF5
:103240000028E8621FD000F0D9FD012809D0401CF9
:1032500019D1502080F31188BFF34F8FBFF36F8FC8
:10326000FEE7502080F31188BFF34F8FBFF36F8FBD
:103270004FF0FF30A86201206861EC6007B0BDE844
:10328000304000F049B907B030BD000049444C451A
:10329000000000000D2800081C0000200248016BFF
:1032A000491C0163704700001C000020164810B53F
:1032B000016B11B10121C16110BD0021C161016922
:1032C000124A01E0B9B1491E01EB810352F82330E3
:1032D000002BF7D001EB810302EB830202F108041B
:1032E00053685B685360A34201D15B685360DA683E
:1032F0000260016110BD502080F31188BFF34F8F31
:10330000BFF36F8FFEE700001C0000209802002032
:1033100070B52020FFF70EFD040005D00025201D0C
:103320002560FFF7D7FD2577204670BD2DE9F047D2
:103330009A46DDF8209090460D4604004FF00007B5
:1033400009D0280E0FD0502080F31188BFF34F8F83
:10335000BFF36F8FFEE7502080F31188BFF34F8FCC
:10336000BFF36F8FFEE71DB100F0F6FB40B112E036
:10337000502080F31188BFF34F8FBFF36F8FFEE7AC
:10338000B9F1000F07D0502080F31188BFF34F8FA1
:10339000BFF36F8FFEE7FFF781FF2668524629468D
:1033A0003046FFF769FC30B1B8F1000F1AD0206841
:1033B000A843206016E0B9F1000F13D0B8F1000F58
:1033C00001D04FF08077BAF1000F01D047F080674D
:1033D00045EA07014A46201DFFF7F4FE00F0ACFC69
:1033E00018B10AE000F0A8FC1FE011494FF080502E
:1033F0000860BFF34F8FBFF36F8FFFF749FD06469D
:10340000800110D4FFF79EFD2668524629463046BB
:10341000FFF732FC28B1B8F1000F02D02068A843B2
:103420002060FFF7AFFD26F07F463046BDE8F0870D
:1034300004ED00E07CB5224C012803D0022801D124
:103440002048606060680025C560416033B14FF47A
:103450008051012B05D0022B0BD106E08560056160
:1034600007E081604FF4C06102E081604FF4806149
:103470000161FEF72DF808B1FDF785F86068016875
:10348000CA6822F02002CA600068C16821F04001C9
:10349000C1600D4940F2091201F58670FEF745FF43
:1034A000FFF736FF20600C20CDE9000500238022C5
:1034B00006A10A4800F0F8FA012800D000207CBDDF
:1034C000B4000020C80100200C3500206D61737429
:1034D0006572207472616E7300000000352E000862
:1034E00001480078704700006C01002070B5CC08DE
:1034F000654201EBC505AB4001219140491EA94041
:103500000519025D6E7842EA06228A431A43025583
:10351000100A687070BD00001CB52649087801903B
:10352000FF20087008788DF800009DF800009DF8D5
:10353000002000F0F000904207D0502080F3118866
:10354000BFF34F8FBFF36F8FFEE79DF800001A4C5B
:1035500000F0500020700720A06005E09DF80020DA
:1035600052008DF80020401E9DF800201206F5D470
:10357000A060032807D0502080F31188BFF34F8F3D
:10358000BFF36F8FFEE74FF44070A06001980870A2
:103590000A48016841F470010160016841F070411E
:1035A0000160FFF735FD00206060FCF741FE002060
:1035B0001CBD000000E400E09000002020ED00E0D1
:1035C00010B5502080F31188BFF34F8FBFF36F8F7A
:1035D00000F0D6FA18B104494FF08050086000207E
:1035E00080F3118810BD000004ED00E038B5049DA3
:1035F00018B153B1CAB181B120E0502080F31188D5
:10360000BFF34F8FBFF36F8FFEE7502080F3118819
:10361000BFF34F8FBFF36F8FFEE7502080F3118809
:10362000BFF34F8FBFF36F8FFEE739B1502080F3A8
:103630001188BFF34F8FBFF36F8FFEE750241C46F6
:10364000012384F846302B460094FFF70FF92046FB
:1036500038BD000070B50D46040025D0FFF772FCA0
:10366000D4E90F20216802FB0011A1600021A163B1
:10367000216861600A46D4E90F01401E00FB012168
:10368000E16021464FF0FF3001F8440F487004F12B
:1036900010008DB1FFF71EFC04F12400FFF71AFCA7
:1036A000FFF770FC012070BD502080F31188BFF33C
:1036B0004F8FBFF36F8FFEE721690029F0D000F034
:1036C00003FB0028ECD004494FF080500860BFF3A2
:1036D0004F8FBFF36F8FE3E704ED00E02DE9FF4765
:1036E00082B01D468A464FF00008040003D0BAF1AC
:1036F000000F08D011E0502080F31188BFF34F8FE6
:10370000BFF36F8FFEE7206C38B1502080F3118833
:10371000BFF34F8FBFF36F8FFEE7022D0AD1E06B2F
:10372000012807D0502080F31188BFF34F8FBFF3DB
:103730006F8FFEE700F010FA3F4F4FF000094FF097
:10374000805648B9049838B1502080F31188BFF3EF
:103750004F8FBFF36F8FFEE7FFF7F4FBA06BE16BBA
:10376000884207D3022D05D00498D0B1B8F1000FDC
:103770001AD01EE02A4651462046FEF7D0FF616A65
:1037800019B104F1240000F09FFA20B13E60BFF3AC
:103790004F8FBFF36F8FFFF7F5FB012006B0BDE839
:1037A000F087FFF7EFFB22E06846FFF7C9FC4FF018
:1037B0000108FFF7E7FBFFF771FDFFF7C3FB94F983
:1037C0004400401C01D184F8449094F94500401C09
:1037D00001D184F84590FFF7D5FB04A9684600F0B5
:1037E00029F930B12046FFF763FA00F0A5FA00206E
:1037F000D4E7FFF7A7FBA06BE16B884213D1FFF77B
:10380000C1FB04F110000499FFF7A8FC2046FFF764
:103810004FFA00F091FA00289ED13E60BFF34F8F1F
:10382000BFF36F8F98E7FFF7ADFB2046FFF740FA35
:1038300000F082FA90E7000004ED00E02DE9F04787
:103840001F4690468946040003D0B9F1000F08D006
:1038500011E0502080F31188BFF34F8FBFF36F8FBB
:10386000FEE7206C38B1502080F31188BFF34F8FF2
:10387000BFF36F8FFEE7022F0AD1E06B012807D05C
:10388000502080F31188BFF34F8FBFF36F8FFEE797
:10389000FFF7D0FB5020EFF3118680F31188BFF3C0
:1038A0004F8FBFF36F8FA06BE16B884206D3022F5F
:1038B00004D0002086F31188BDE8F08794F94550C4
:1038C000A06B3A4649462046FEF729FF681C04D003
:1038D0006D1C84F845500120ECE7606A0028FAD09E
:1038E00004F1240000F0F0F90028F4D0B8F1000F42
:1038F000F1D00121C8F80010EDE700002DE9F747ED
:10390000002683B08A46040003D0BAF1000F08D025
:1039100011E0502080F31188BFF34F8FBFF36F8FFA
:10392000FEE7206C38B1502080F31188BFF34F8F31
:10393000BFF36F8FFEE700F00FF9DFF8F4804FF070
:1039400000094FF0805748B9059838B1502080F3EE
:103950001188BFF34F8FBFF36F8FFEE7FFF7F2FAC7
:10396000A56BC5B151462046FEF7C6FE6D1EA56388
:10397000206950B104F1100000F0A6F928B1C8F890
:103980000070BFF34F8FBFF36F8FFFF7FBFA01207B
:1039900006B0BDE8F087059808B11EB106E0FFF754
:1039A000F1FA27E06846FFF7CBFB0126FFF7EAFABA
:1039B000FFF774FCFFF7C6FA94F94400401C01D1EC
:1039C00084F8449094F94500401C01D184F8459056
:1039D000FFF7D8FA05A9684600F02CF80028204621
:1039E0000AD0FFF765F900F0A7F92046FEF7EAFFD5
:1039F0000028B3D00020CBE7FEF7E4FF90B104F13C
:103A000024000599FFF7AAFB2046FFF751F900F0C3
:103A100093F90028A2D1C8F80070BFF34F8FBFF30D
:103A20006F8F9BE72046FFF743F900F085F995E794
:103A300004ED00E02DE9F0410C46050011D0C4B1C1
:103A4000FFF780FA174BDA686E682068911B471CF5
:103A500017D02F681B6A9F4219D0964217D80124AD
:103A600010E0502080F31188BFF34F8FBFF36F8FAA
:103A7000FEE7502080F31188BFF34F8FBFF36F8FA5
:103A8000FEE70024FFF77EFA2046BDE8F081884279
:103A900005D9401A20602846FFF752FBF1E70020C5
:103AA0002060DCE71C0000202DE9FF5F8346DDE994
:103AB0000E87994616468A469000FFF73BF90500A7
:103AC0001CD05C20FFF736F9040014D000202563D9
:103AD00084F85900CDE90240CDE900874B463246D3
:103AE00051465846FEF7D4FE2046FEF771FD0120F0
:103AF00004B0BDE8F09F2846FFF758FA4FF0FF30BA
:103B0000F6E7F0B585B0DDE90B640A9DA6B1DCB13E
:103B10005C2700972663022684F85960002604AFCC
:103B2000CDE90246CDE90057FEF7B2FE2046FEF78A
:103B30004FFD049805B0F0BD502080F31188BFF30D
:103B40004F8FBFF36F8FFEE7502080F31188BFF3D4
:103B50004F8FBFF36F8FFEE70548416919B1006BC6
:103B600018B1002070470120704702207047000004
:103B70001C0000200148C068704700001C000020A5
:103B80002DE9F0412E4C0027206B28B1A069401C84
:103B9000A0613846BDE8F081E668761CE66013D186
:103BA000606B006838B1502080F31188BFF34F8FED
:103BB000BFF36F8FFEE7606BA16B6163A063206A48
:103BC000401C2062FEF7EAFFA06ADFF87880864298
:103BD00009D3606B0068A0B1606BC068C568686895
:103BE000864211D2A0622068C06A00EB800158F8BA
:103BF0002100012800D90127E0690028C9D0012748
:103C0000C7E74FF0FF30EDE7281DFFF72DF9A86A51
:103C100018B105F11800FFF727F9E86A2169884211
:103C200000D9206100EB800108EB8100291DFFF71E
:103C300077F9E86A2168C96A8842CAD30127C8E7C8
:103C40001C0000209802002070B504004FF0000115
:103C500033D01B4D2868844207D0502080F3118850
:103C6000BFF34F8FBFF36F8FFEE7206D38B1401E5B
:103C70002065E36CE26A9A421FD040B11DE05020FB
:103C800080F31188BFF34F8FBFF36F8FFEE7201DC6
:103C9000FFF7EAF8E06CE062C0F13800A061E06A8A
:103CA0002969884200D92861064900EB800001EBB0
:103CB0008000211DFFF734F90121084670BD000086
:103CC0001C0000209802002070B5C068C46854B180
:103CD00004F118000646FFF7C7F8144D286B50B1E1
:103CE0003146134815E0502080F31188BFF34F8F01
:103CF000BFF36F8FFEE7201DFFF7B6F8E06A296972
:103D0000884200D928610B4900EB800001EB80005C
:103D1000211DFFF705F9E06A2968C96A884202D9BE
:103D20000120E86170BD002070BD00001C00002073
:103D300020070020980200202DE9F0472C4D002498
:103D40002746286B38B1FFF7FDF8286B401E286323
:103D5000286B40B146E0502080F31188BFF34F8FAD
:103D6000BFF36F8FFEE7A968224E0120D1B3A6F5FD
:103D7000916980463068E0B1F068C46804F11800C9
:103D8000FFF772F8201DFFF76FF8E06A2969884293
:103D900000D9286100EB800109EB8100211DFFF7AC
:103DA000BFF8E06A2968C96A8842E3D3C5F81C8075
:103DB000E0E70CB1FEF7F2FEAC694CB14FEA080641
:103DC000FFF7DEFE00B1EE61641EF9D10020A861AC
:103DD000E86938B10849012738070860BFF34F8FF9
:103DE000BFF36F8FFFF7CEF83846BDE8F0870000CD
:103DF0001C0000202007002004ED00E010B586B074
:103E0000FEF74EFC114C2068B8B1002003900490DE
:103E100005AA04A903A8FFF751F8DDE90321022050
:103E20008DE8070000230AA10B48059AFFF769FEF9
:103E3000606010B106B0012010BD502080F31188E1
:103E4000BFF34F8FBFF36F8FFEE7000058000020D5
:103E5000546D7220537663008D2C00082DE9FF41CC
:103E60001E46134602000A9D4FF0000016D0144C67
:103E70002768002F0FD0CDE900130292062917DA28
:103E8000FFF76AFE02284FF000030FD000226946B8
:103E90002068FFF723FC04B0BDE8F081502080F3D8
:103EA0001188BFF34F8FBFF36F8FFEE72A46EEE70F
:103EB0000023324669463846FFF7C0FCEBE70000B6
:103EC00058000020143F000800000000000000001F
:103ED00000000000000000000002000018000000C8
:103EE00000000000000000000102020304050607B4
:103EF00008090A0B0C0D0E0F101000000000000046
:103F00000000010203040607080900000000010286
:103F10000304000064656661756C745461736B0022
:103F2000403F000800000020800100006C010008F4
:103F3000883F000880010020303D0000C8010008D3
:103F4000C1320182100379127A1AAA010125022EC8
:103F5000022A1104121E33080413491F3308031ADE
:103F6000F71029F413F3203308061A610832171AE0
:103F7000992032011A352032051A0B18320F1A9384
:083F80000829771A9718014483
:0400000508000131BD
:00000001FF
