:020000040800F2
:1000000040510024F9030008773300086F310008DD
:10001000753300082F0700089D3F0008000000000E
:10002000000000000000000000000000390300088C
:10003000310700080000000095030008453600085D
:100040001304000813040008130400081304000834
:100050001304000813040008130400081304000824
:100060001304000813040008130400081304000814
:100070001304000813040008130400081304000804
:1000800013040008130400081304000813040008F4
:1000900013040008130400081304000813040008E4
:1000A00013040008130400081304000813040008D4
:1000B00013040008130400081304000813040008C4
:1000C00013040008130400081304000813040008B4
:1000D000130400081304000813040008913F0008EB
:1000E00013040008130400080000000013040008B3
:1000F0001304000813040008130400081304000884
:100100001304000813040008130400081304000873
:100110001304000813040008193800081304000829
:100120001304000813040008130400081304000853
:100130001304000813040008130400081304000843
:1001400000000000000000000000000000000000AF
:100150001304000813040008130400081304000823
:100160001304000813040008130400081304000813
:100170001304000813040008130400080000000022
:10018000130400081304000813040008F5380008DD
:1001900013040008130400081304000813040008E3
:1001A00013040008130400081304000813040008D3
:1001B00013040008130400081304000813040008C3
:1001C00013040008130400081304000813040008B3
:1001D00013040008130400081304000813040008A3
:1001E0001304000813040008130400081304000893
:1001F0001304000813040008130400081304000883
:100200001304000813040008130400081304000872
:100210001304000813040008130400081304000862
:100220001304000813040008130400080000000071
:100230001304000813040008000000001304000861
:100240001304000813040008130400081304000832
:100250001304000813040008130400081304000822
:100260001304000813040008130400081304000812
:100270001304000813040008130400080000000021
:100280001304000813040008130400080000000011
:10029000000000001304000800F002F800F03CF831
:1002A0000AA090E8000C82448344AAF10107DA45D1
:1002B00001D100F031F8AFF2090EBAE80F0013F0E7
:1002C000010F18BFFB1A43F00103184788570000BD
:1002D000A8570000103A24BF78C878C1FAD852074E
:1002E00024BF30C830C144BF04680C6070470000B0
:1002F0000023002400250026103A28BF78C1FBD82F
:10030000520728BF30C148BF0B6070471FB505F0CA
:1003100067FB1FBD10B510BD00F0D0F91146FFF707
:10032000F5FF03F04DFE00F0EEF903B4FFF7F2FF26
:1003300003BC00F0F5F900002C4B19680868B0E820
:10034000F04F80F30988BFF36F8F4FF0000080F308
:10035000118870470000000008480068006880F3BA
:1003600008884FF0000080F3148862B661B6BFF3CE
:100370004F8FBFF36F8F00DF00BF00BF08ED00E0BD
:10038000DFF80C00016841F470010160704700BFA4
:1003900088ED00E0EFF30980BFF36F8F134B1A680D
:1003A0001EF0100F08BF20ED108A20E9F04F1060FA
:1003B00009B44FF0500080F31188BFF34F8FBFF3A3
:1003C0006F8F04F093FD4FF0000080F3118809BC9B
:1003D00019680868B0E8F04F1EF0100F08BFB0ECC5
:1003E000108A80F30988BFF36F8F704718000024CC
:1003F000EFF305807047000009488047094800472F
:10040000FEE7FEE7FEE7FEE7FEE7FEE7FEE7FEE7C4
:10041000FEE7FEE704480549054A064B7047000021
:100420003D37000899020008404B00244051002449
:10043000404D0024404D002453EA020C00F0698036
:100440002DE9F04B4FF00006002B1FBFB3FA83F5E8
:1004500003FA05F424FA05F65E4012BF1643B2FA19
:1004600082F502FA05F4C5F120051EBF22FA05FC4B
:1004700044EA0C04203556EA044C4FEA144418BFF1
:10048000641C4FF000084FF00009904271EB030C20
:1004900039D3002919BFB1FA81F701FA07F6B0FA8A
:1004A00080F700FA07F6C7F120071EBF20FA07FC05
:1004B00046EA0C062037B6FBF4FCA7EB0507103F15
:1004C00007F01F0BCBF120060CFA0BFB2CFA06F6FB
:1004D00044BFB3460026202FA4BF5E464FF0000B5A
:1004E0005BEA060C08BF4FF0010B19EB0B09ABFBE5
:1004F000027C48EB0608C01B06FB02CC0BFB03CCBE
:1005000071EB0C01C1E70B46024641464846BDE887
:10051000F08B13B54FF000004FF00001AFF30080F7
:10052000BDE81C407047032A40F2308010F0030CF5
:1005300000F0158011F8013BBCF1020F624498BF36
:1005400011F801CB00F8013B38BF11F8013BA2F1D3
:10055000040298BF00F801CB38BF00F8013B11F04E
:10056000030300F05780083AC0F0088051F8043BBC
:10057000083A51F804CBA0E80810F5E7121D5CBF5B
:1005800051F8043B40F8043BAFF30080D20724BF8E
:1005900011F8013B11F801CB48BF11F8012B24BF22
:1005A00000F8013B00F801CB48BF00F8012B704771
:1005B00002F0FF0343EA032242EA024200F05EB87F
:1005C0004FF0000200B5134694469646203922BFEC
:1005D000A0E80C50A0E80C50B1F12001BFF4F7AF37
:1005E000090728BFA0E80C5048BF0CC05DF804EB19
:1005F000890028BF40F8042B08BF704748BF20F887
:10060000022B11F0804F18BF00F8012B7047704784
:100610007047704710B5203AC0F00B80B1E8185011
:10062000203AA0E81850B1E81850A0E81850BFF4DC
:10063000F5AF5FEA027C24BFB1E81850A0E818507B
:1006400044BF18C918C0BDE810405FEA827C24BFCF
:1006500051F8043B40F8043B08BF7047D20728BF5D
:1006600031F8023B48BF11F8012B28BF20F8023BAC
:1006700048BF00F8012B70474FF000020429C0F07A
:10068000128010F0030C3FF49DAFCCF1040CBCF1D0
:10069000020F18BF00F8012BA8BF20F8022BA1EB16
:1006A0000C01FFF78FBF5FEAC17C24BF00F8012B6C
:1006B00000F8012B48BF00F8012B7047754600F089
:1006C0002BF8AE4605006946534620F007008546E4
:1006D00018B020B5FFF79EFEBDE820404FF00006A1
:1006E0004FF000074FF000084FF0000B21F007011A
:1006F000AC46ACE8C009ACE8C009ACE8C009ACE85D
:10070000C0098D46704710B50446AFF300802046FF
:10071000BDE81040FFF709BE00487047E04A0024DA
:1007200001491820ABBEFEE7260002007047FEE735
:10073000704772B6FEE700002DE9F84F044600F05E
:100740002DFC00903CB194F83500022806D08021A1
:1007500061650020E4E00120BDE8F88FC74DC74E79
:10076000C649183520683036DFF81483DFF8149353
:100770008842DFF814A3DFF814B32ED0A8422CD09F
:10078000B0422AD0404528D0484526D0504524D0F4
:10079000584522D0BD4A183290421ED0BC4A9042E1
:1007A0001BD0BB4A1832904217D0B94A303290421F
:1007B00013D0B74A483290420FD0B54A60329042C7
:1007C0000BD0B34A7832904207D0B14A903290426F
:1007D00003D0AF4AA832904209D1026822F01E022B
:1007E00002602068426922F08002426103E00268F0
:1007F00022F00E02026027688F4238464DD0A84290
:100800004BD0B04249D0404547D0484545D05045EF
:1008100043D0584541D09D4A183290423DD09C4A21
:1008200090423AD09A4A1832904236D0984A3032A2
:10083000904232D0964A483290422ED0944A60324A
:1008400090422AD0924A7832904226D0904A9032F2
:10085000904222D08E4AA83290421ED08D4A9042B9
:100860001BD08C4A1432904217D08A4A28329042C8
:1008700013D0884A3C3290420FD0864A5032904280
:100880000BD0844A6432904207D0824A7832904238
:1008900003D0804A8C32974204D1206E026822F441
:1008A0008072026075492068884228D0A84226D00C
:1008B000B04224D0404522D0484520D050451ED0DB
:1008C00058451CD071491831884218D07049884267
:1008D00015D06F491831884211D06D4930318842A6
:1008E0000DD06B494831884209D06949603188424E
:1008F00005D067497831884201D065499031016857
:1009000021F0010101600EE000F048FB0099401A5F
:10091000052808D9202262650321002084F83510BB
:1009200084F8340017E73868C007EDD1534A012135
:10093000206890422ED0A8422CD0B0422AD0404508
:1009400028D0484526D0504524D0584522D04F4B7A
:10095000183398421ED04E4B98421BD04C4B183344
:10096000984217D04A4B3033984213D0484B483303
:1009700098420FD0464B603398420BD0444B7833AB
:10098000984207D0424B9033984203D0404BA83353
:10099000984208D194F85C703F23A06D07F01F07C0
:1009A000BB40836007E094F85C30A06D03F01F0348
:1009B00001FA03F34360206890424DD0A8424BD027
:1009C000B04249D0404547D0484545D0504543D036
:1009D000584541D02D4A183290423DD02C4A904281
:1009E0003AD02B4A1832904236D0294A30329042BF
:1009F00032D0274A483290422ED0254A6032904267
:100A00002AD0234A7832904226D0214A903290420E
:100A100022D01F4AA83290421ED01E4A90421BD0BC
:100A20001C4A1432904217D01A4A2832904213D0EE
:100A3000184A3C3290420FD0164A503290420BD0A6
:100A4000144A6432904207D0124A7832904203D05E
:100A5000104A8C3290420BD1D4E919024260E06E08
:100A600030B1026822F480720260D4E91C02426054
:100A7000002084F8351084F834006DE61000024040
:100A8000580002407000024088000240A00002406E
:100A900010040240085402582DE9F05F28B190F884
:100AA0003510022904D0802141650120BDE8F09F66
:100AB000904C904B0168183C18338E4ADFF83C92FA
:100AC000A1428D4CDFF838E28E4FDFF83CB2DFF800
:100AD0003CA28F4D8F4E31D091422FD099422DD0D4
:100AE000A1422BD0494529D0714527D0B94225D004
:100AF000DFF810C20CF1180C61451FD0DFF808C2F6
:100B0000ACF1600C614519D0DFF8FCC1ACF1480CC8
:100B1000614513D0DFF8F0C1ACF1300C61450DD068
:100B2000DFF8E4C1ACF1180C614507D0594505D098
:100B3000514503D0A94201D0B1422CD1DFF8B4C154
:100B40004FF0040880F83580ACF1180C61451DD0D9
:100B500091421BD0994219D0A14217D0494515D0D6
:100B6000714513D0B94211D06648183081420DD07A
:100B700065486038814209D063484838814205D0D1
:100B800061483038814201D05F481838086820F049
:100B900001000860ABE0D1F800C02CF00E08DFF8CF
:100BA00054C1C1F80080ACF1180C0168614527D030
:100BB000914225D0994223D0A14221D049451FD04E
:100BC00071451DD0B9421BD0DFF838C10CF1180CAB
:100BD000614515D0DFF830C1ACF1600C61450FD034
:100BE000DFF824C1ACF1480C614509D0DFF818C129
:100BF000ACF1300C614503D0DFF80CC1ACF1180C3E
:100C0000D1F800C02CF0010CC1F800C0DFF8E4807E
:100C10004FF0010C0168A8F11808414546D09142F7
:100C200044D0994242D0A14240D049453ED071457E
:100C30003CD0B9423AD0334A1832914236D0324A87
:100C4000603A914232D0304A483A91422ED02E4AF0
:100C5000303A91422AD02C4A183A914226D059452E
:100C600024D0514522D0A94220D0B1421ED02A4AD8
:100C700091421BD0284A1432914217D0264A28327A
:100C8000914213D0244A3C3291420FD0224A503232
:100C900091420BD0204A6432914207D01E4A7832EA
:100CA000914203D01C4A8C32914218D1016E0A68DD
:100CB00022F480720A6090F85C20816D02F01F02BD
:100CC0000CFA02F24A60D0E919124A60C16E31B1E1
:100CD0000A6822F480720A60D0E91C124A6000227D
:100CE000016D80F835C080F8342001B188470020BC
:100CF000DCE600002800024058000240700002407C
:100D000088000240A00002407004024088040240B3
:100D1000A0040240B80402400854025870B50446CA
:100D200000F03CF90546601C02D0044800780444F9
:100D300000F034F9401BA042FAD370BD0400002437
:100D40002DE9F84F03247D4D00234FF001094FF0AA
:100D5000B04B4FF00F0AE9E009FA03F73A4076D0BA
:100D60000E7906F00306012E01D0022E18D1D0F81C
:100D700008C04FEA430ECE6804FA0EF82CEA080CBD
:100D800006FA0EF646EA0C068660D0F804C00E7924
:100D90002CEA070CC6F300169E4046EA0C06466095
:100DA0000E79F643B6070BD0C6684FEA43088F6842
:100DB00004FA08FC26EA0C0607FA08F73743C7606E
:100DC0000E7906F00306022E12D1DE080F694FEAF3
:100DD000437C00EB8606B646366A4FEADC6C0AFABC
:100DE0000CF807FA0CF726EA08063743CEF820700D
:100DF0000F7906684FEA430807F0030704FA08FC76
:100E000007FA08F726EA0C06374307604E6816F41F
:100E1000403F1CD04A4E376847F0020737603668BB
:100E20009F0706F00206009623F0030606F1B0467F
:100E3000B6463F0FD6F80864DFF808810AFA07FCC7
:100E4000404526EA0C0603D14FF0000C41E06CE06F
:100E5000DFF8F4C0604502D14FF0010C39E0DFF853
:100E6000ECC0604502D14FF0020C32E0DFF8E0C088
:100E7000604502D14FF0030C2BE0DFF8D8C060458D
:100E800002D14FF0040C24E0DFF8CCC0604502D161
:100E90004FF0050C1DE0DFF8C4C0604502D14FF0F3
:100EA000060C16E0DFF8B8C0604502D14FF0070C21
:100EB0000FE0DFF8B0C0604502D14FF0080C08E049
:100EC000DFF8A4C0604502D14FF0090C01E04FF0FB
:100ED0000A0C0CFA07FC4CEA060CCEF808C44F6862
:100EE000DBF80060FF0226EA020600D516435F46E3
:100EF000CBF80060D1F804C0DBF804605FEA8C2C0A
:100F000026EA020600D516437E606E684F6826EA20
:100F10000206BF0300D516436E602E684F6826EAAE
:100F20000206FF0300D516432E605B1C0A6832FAE6
:100F300003F67FF411AFBDE8F88F00008000005881
:100F4000F4440258000002580004025800080258F5
:100F5000000C0258001002580014025800180258E1
:100F6000001C025800200258002402580069084062
:100F700000D001207047426921EA02030A4043EA97
:100F80000241816170470AB1816170470904FBE742
:100F900001480068000C70470010005C0148806840
:100FA0007047000004000024024881680278114460
:100FB0008160704704000024032010B500F0FEF8A3
:100FC00001F006F90F4A104914681368C4F30322AC
:100FD00003F00F038A5CC95C02F01F0201F01F01DD
:100FE000D0400A4A20FA01F11160094908600F2037
:100FF00000F010F808B1012010BD00F09FF80020AB
:1010000010BD000018440258385A0008140000248B
:101010001000002410B5102804468AB02CD20022FB
:101020000146362000F0AAF8362000F099F817485B
:1010300004601748016841F010010160006809A9C7
:1010400000F010000890684601F04EF80598B0B125
:1010500001F09AF840000F4900220F4CB0FBF1F16B
:101060000E4840F2E7330460C0E90332491EC0E98C
:10107000011201F00DFC28B101200AB010BD01F0F1
:1010800083F8E8E7054801F035FCF6E7080000249E
:10109000E844025840420F0000100040C001002404
:1010A000154BF0B5083B427813491A600B680A1FCC
:1010B00023F001030B6043681360057BC67A827AD4
:1010C000437B2D07847B45EA0665C77B90F809C002
:1010D000067A90F800E045EAC24040EA834040EAE0
:1010E000444040EA074040EA0C2040EA460040EA1B
:1010F0000E000860F0BD0000A0ED00E0BFF35F8FC0
:10110000044800210368034A23F4803303607032EB
:101110001160704724ED00E0074A40F001000649E5
:1011200070321060086840F480300860BFF34F8F61
:10113000BFF36F8F7047000024ED00E0074882B0D6
:10114000016841F002010160006800220F2100F0F7
:1011500002000090901E02B000F010B8F444025853
:10116000002809DB410900F01F028900012001F17C
:10117000E0219040C1F80001704700000E4BF0B430
:101180001B680D46C3F30223C3F10706042E00D9E2
:101190000426191D072901D2002300E0DB1E0124CB
:1011A00004FA06F19C40491E2940641E99401440EF
:1011B0002143F0BC02F0F3BE0CED00E0064900F064
:1011C000070210B54FF6FF040868044B204040EAC0
:1011D00002201843086010BD0CED00E00000FA0585
:1011E000134970B50A68D243520705D5096801F062
:1011F0000701814213D118E00A6822F00702024376
:101200000A60FFF7CBFE0A4D4FF47A760446083D9C
:1012100007E000BFFFF7C2FE001BB04201D901206A
:1012200070BD2868C0438004F4D4002070BD000065
:101230000C48025810B500F085FF05490968054AB9
:10124000C1F30211515C01F01F01C84010BD000044
:1012500020440258385A0008494930B5484C0B1D03
:101260000A68143409681D68246802F00303C5F392
:101270000012C1F30531C4F3CC04002914FB02F2BF
:1012800000EE102AF8EE400A75D03F4A9FED3D1A55
:10129000B7EE000A6BB1DFED3D1A012B01D0022B36
:1012A00064D002EE101A1168F8EE422A81EEA22AEA
:1012B00021E0334C283C23689B0612D5344B24682C
:1012C00001EE901A1168C4F3C104F8EE612AE340FC
:1012D00001EE903AC1F30801F8EE611A81EEA22AFC
:1012E0000BE001EE901ADFED2B2A00BFF8EE611A39
:1012F000116882EEA12AC1F3080101EE901A11686B
:10130000F8EE611A40EE811A71EE800A62EE200A50
:10131000C1F3462101EE101AB8EE411A31EE001A5F
:10132000C0EE811ABCEEE11A80ED001A1168C1F31B
:10133000064101EE101AB8EE411A31EE001AC0EE65
:10134000811ABCEEE11A80ED011A1168C1F3066141
:1013500001EE101AB8EE411A31EE000A80EE801A42
:10136000BCEEC10A80ED020A30BD04E001EE901A25
:10137000DFED092ABAE70021016041608160F3E7EF
:101380002844025800000039384402580024744AA6
:101390000090D0030024744C001B374B494930B5F2
:1013A000484C0B1D0A681C3409681D68246802F04B
:1013B0000303C5F30022C1F30551C4F3CC04002993
:1013C00014FB02F200EE102AF8EE400A75D03F4AF4
:1013D0009FED3D1AB7EE000A6BB1DFED3D1A012B10
:1013E00001D0022B64D002EE101A1168F8EE422AE6
:1013F00081EEA22A21E0334C283C23689B0612D5BB
:10140000344B246801EE901A1168C4F3C104F8EE5D
:10141000612AE34001EE903AC1F30801F8EE611A47
:1014200081EEA22A0BE001EE901ADFED2B2A00BF1D
:10143000F8EE611A116882EEA12AC1F3080101EEEB
:10144000901A1168F8EE611A40EE811A71EE800A66
:1014500062EE200AC1F3462101EE101AB8EE411ADD
:1014600031EE001AC0EE811ABCEEE11A80ED001ACE
:101470001168C1F3064101EE101AB8EE411A31EEBF
:10148000001AC0EE811ABCEEE11A80ED011A116853
:10149000C1F3066101EE101AB8EE411A31EE000AEE
:1014A00080EE801ABCEEC10A80ED020A30BD04E075
:1014B00001EE901ADFED092ABAE7002101604160D0
:1014C0008160F3E728440258000000394044025884
:1014D0000024744A0090D0030024744C001B374B46
:1014E0002DE9FE4F0546DFF8E48350F8081B002481
:1014F000F64FC943019005F12800264608F124085B
:10150000009008011DD4A86E50B1B0F5801F0CD01A
:10151000B0F5001F0ED0B0F5401F1ED001240FE023
:10152000386840F40030386017E00198022101F07B
:1015300023FF03E00098022101F0AEFF04000CD06D
:1015400026462888C043C00523D4A86D05281ED28E
:10155000DFE800F00C11161B1B00AA6ED8F8001073
:1015600021F440111143C8F80010EAE7386840F44C
:101570000030386009E00198002101F0FDFE03E031
:101580000098002101F088FF044674B100E00124B6
:1015900026462888C043800528D4E86D80281ED0C0
:1015A0000CDC90B140280ED114E0AA6DD8F80010E0
:1015B00021F007011143C8F80010EAE7C02813D052
:1015C000B0F5807F10D001240FE0386840F400307F
:1015D000386009E00198002101F0CEFE03E0009898
:1015E000002101F059FF04469CB126462888DFF807
:1015F000DC92C04309F12C0940052CD4D5F8A80091
:10160000B0F5800F20D00DDCA0B1B0F5001F0FD1D8
:1016100015E0EA6DD8F8001021F4E0711143C8F824
:101620000010E3E7B0F5C00F13D0B0F5000F10D0F5
:1016300001240FE0386840F40030386009E0019878
:10164000002101F099FE03E00098002101F024FF41
:1016500004467CB126462888C04300052DD4D5F821
:10166000AC00B0F1007F21D00EDCA8B1B0F1807FDA
:1016700010D116E0D5F8A820D9F8001021F46001A7
:101680001143C9F80010E6E7B0F1407F13D0B0F184
:10169000806F10D001240FE0386840F400303860CB
:1016A00009E00198002101F067FE03E000980021A5
:1016B00001F0F2FE044674B126462868C04380015A
:1016C0001FD4E86CD8B110280FD0202812D03028B1
:1016D00015D0012414E0D5F8AC20D9F8001021F081
:1016E000E0611143C9F80010E7E7386840F40030C2
:1016F000386004E00198022101F03EFE044674B116
:1017000026462888C043C0042BD4286EB0F5005F5D
:1017100020D00DDCA0B1B0F5805F0FD115E06B4893
:10172000EA6C2030016821F0300111430160E8E7E4
:10173000B0F5405F13D0B0F5804F10D001240FE01A
:10174000386840F40030386009E00198002101F069
:1017500013FE03E00098002101F09EFE04468CB1C8
:1017600026462888C043800429D4686EB0F5403FDF
:1017700023D010DC08B3B0F5803F14D0B0F5003FA3
:101780000FD115E02A6ED8F8001021F4E041114382
:10179000C8F80010E5E7B0F5802F0ED0B0F5A02F07
:1017A0000BD001240AE00198012101F0E5FD03E0DE
:1017B0000098012101F070FE044694B12646288865
:1017C000C04340042AD4D5F8B000B0F1405F23D024
:1017D00010DC08B3B0F1805F14D0B0F1005F0FD11E
:1017E00015E06A6ED8F8001021F4E0211143C8F822
:1017F0000010E4E7B0F1804F0ED0B0F1A04F0BD055
:1018000001240AE00198012101F0B6FD03E00098EF
:10181000012101F041FE044674B126462888C043E8
:1018200000041FD4286FD8B1B0F1805F0ED0B0F1A2
:10183000005F10D0012414E0D5F8B020D9F80010D2
:1018400021F0E0411143C9F80010E7E7386840F49F
:101850000030386004E00198012101F08DFD04465C
:1018600074B126462868C043C0011ED4A86CD0B10C
:1018700001280ED0022811D0032814D0012413E02F
:101880002A6FD8F8001021F040511143C8F8001019
:10189000E8E7386840F40030386004E0019802213D
:1018A00001F06AFD0446ACB126462868DFF81CB09A
:1018B000C043ABF11C0B400252D40548016841F40F
:1018C00080710160FFF76AFB824611E02C440258E8
:1018D00000480258FA48AA6C016821F0030111433C
:1018E0000160E2E7FFF75AFBA0EB0A00642835D855
:1018F000F4480068C005F5D58CBBDFF8C4A3B5F883
:10190000B4100AF1240ADAF8000001F4407100F47E
:101910004070884211D0DAF80010DAF8002021F483
:10192000407142F48032CAF80020DAF8002022F434
:101930008032CAF80020CAF80010D5F8B400B0F51B
:10194000807F1AD1FFF72AFB029012E0FFF726FBF7
:101950000299411A41F2883081420AD9032426466D
:101960002878DFF85CA3C0430AF1080AC00721D039
:101970003CE0DAF800008007E8D5D5F8B410C1F3F0
:101980000120032858460DD0016821F47C510160E4
:10199000B5F8B420DAF80010C2F30B021143CAF80C
:1019A0000010DDE7C84A036802EA111223F47C51F3
:1019B0001143ECE7E86F182816D005DCA0B1082821
:1019C00008D0102804D10AE020280DD028280BD0F8
:1019D00001240AE00198012101F0CEFC03E0009807
:1019E000012101F059FD044664B126462878C04320
:1019F00080071ED4A86F062819D2DFE800F0160C65
:101A000011161616EA6FDAF8001021F038011143AA
:101A1000CAF80010EAE70198012101F0ADFC03E0EB
:101A20000098012101F038FD04467CB100E001245A
:101A300026462878C04340071FD4D5F894000628CE
:101A400019D2DFE800F0160C11161616AA6FDAF894
:101A5000001021F007011143CAF80010E9E70198CE
:101A6000012101F089FC03E00098012101F014FD3F
:101A70000446A4B100E0012426462878C04380062D
:101A80002BD4D5F89000B0F1405F24D011DC10B316
:101A9000B0F1805F15D0B0F1005F10D116E0D5F83D
:101AA0009420D9F8001021F007011143C9F8001063
:101AB000E3E7B0F1804F0ED0B0F1A04F0BD001247E
:101AC0000AE00198002101F057FC03E00098022190
:101AD00001F0E2FC044694B126462878C043400653
:101AE0002BD4D5F89C00B0F5406F24D011DC10B396
:101AF000B0F5806F15D0B0F5006F10D116E0D5F8B5
:101B00009020DAF8001021F0E0411143CAF80010EB
:101B1000E3E7B0F5805F0ED0B0F5A05F0BD00124F5
:101B20000AE00198002101F027FC03E0009802215F
:101B300001F0B2FC044694B126462878C043000662
:101B40002BD4D5F8A000B0F5C04F24D011DC10B3D1
:101B5000B0F5005F15D0B0F5804F10D116E0D5F884
:101B60009C20D9F8001021F4E0511143C9F800106D
:101B7000E3E7B0F5004F0ED0B0F5204F0BD00124B5
:101B80000AE00198002101F0F7FB03E00098022130
:101B900001F082FC044654B126462878C043000771
:101BA0001ED4D5F88400B0F5805F0AD00FE0D5F8D8
:101BB000A020D9F8001021F460411143C9F80010A9
:101BC000EBE70098022101F067FC00B10126D5F88F
:101BD0008420DAF8001021F440511143CAF80010B3
:101BE0002878C043C00613D4D5F89800B0F5807F9C
:101BF00005D10098022101F04FFC00B10126D5F873
:101C00009820D9F8001021F440711143C9F8001050
:101C10002868C043000316D4D5F8A40038B1B0F545
:101C2000803F09D0B0F5003F0BD001240AE00198B5
:101C3000002101F0A1FB03E00098022101F02CFC3F
:101C400004468CB126462868C043400322D4D5F808
:101C50008800B0F5801F11D0B0F5001F13D0B0F58B
:101C6000401F15D0012414E0D5F8A420D9F80010A5
:101C700021F440311143C9F80010E4E7386840F41A
:101C80000030386004E00098012101F005FC0446B2
:101C90005CB126462868C043C00323D4286DA8B190
:101CA000B0F5803F17D001241BE0D5F88820DAF882
:101CB000001021F440111143CAF80010EAE70000B7
:101CC0004C44025800480258CFFFFF00386840F4E7
:101CD0000030386004E00198022101F04DFB044619
:101CE000E4B126462868C043800005D4009802214C
:101CF00001F0D2FB00B101262868C04380031BD449
:101D0000D5F88000B0B1B0F5807F0FD0B0F5007F7E
:101D100010D0B0F5407F0DD001240CE05A482A6D58
:101D2000016821F4803111430160DBE7386840F439
:101D300000303860ECB326462868C043C00207D4A0
:101D40006A6FD8F8001021F000411143C8F8001064
:101D50002868C043C00008D4D5F8B820DBF80010CC
:101D600021F480411143CBF800102868C043800261
:101D700007D4EA6ED8F8001021F080711143C8F83A
:101D800000102868C04340000CD4DBF8001021F498
:101D90000041CBF80010DBF80010D5F8BC2011434F
:101DA000CBF800102868C04308D437486A6D016832
:101DB00000E018E021F04051114301602868C04361
:101DC000000208D4D5F88C20DAF8001021F4400184
:101DD0001143CAF8001028790024C04300F0010024
:101DE00020430AD00FE0D5F88020DAF8001021F463
:101DF00040711143CAF800109EE70198002101F0DC
:101E0000BBFA00B106462879C04300F00200204327
:101E100005D10198012101F0AFFA00B106462879F9
:101E2000C04300F00400204305D10198022101F0D5
:101E3000A3FA00B106462879C04300F00800204309
:101E400005D10098002101F027FB00B10646287952
:101E5000C04300F01000204305D10098012101F09B
:101E60001BFB00B106462879C04300F02000044364
:101E700004D10098022101F00FFB00B916B1012036
:101E8000BDE8FE8F0020FBE74C4402582DE9F05FCF
:101E900004000F467ED0DFF83882D8F8000000F04A
:101EA0000F00B8420CD2D8F8001021F00F013943CE
:101EB000C8F80010D8F8000000F00F00B84269D14F
:101EC0002078844D40070AD52069296801F0700107
:101ED000884204D9296821F07001014329602078E3
:101EE0007C4E361D00070AD56069316801F070012B
:101EF000884204D9316821F07001014331602078B3
:101F0000C0060AD5A069316801F4E061884204D9AD
:101F1000316821F4E061014331602078DFF8B4B129
:101F200080060BF1080B0CD5E1695846DBF8002060
:101F300002F07002914204D9026822F070020A4352
:101F40000260207880070AD5E068296801F00F0157
:101F5000884204D9296821F00F01014329602078C3
:101F6000C0073ED05B49A2682868183920F4706029
:101F7000104328606068022818D0032819D0096827
:101F8000012819D0490700294ADADFF848A1AAF147
:101F9000080A00E044E0DAF8002022F007020243D9
:101FA000CAF80020FEF7FAFF814612E009688903AB
:101FB000E9E709688901E6E7C905E4E7FEF7EEFF0E
:101FC000A0EB090141F28830814202D90320BDE82B
:101FD000F09F6168DAF8000000F03800B0EBC10F44
:101FE000ECD1207880070AD5E068296801F00F015C
:101FF000884204D2296821F00F0101432960D8F8F2
:102000000010404601F00F01B9420BD9016821F0E0
:102010000F0139430160006800F00F00B84201D0A1
:102020000120D4E7207840070AD52069296801F00B
:102030007001884204D2296821F0700101432960AF
:10204000207800070AD56069316801F07001884284
:1020500004D2316821F07001014331602078C0065C
:102060000AD5A069316801F4E061884204D2316880
:1020700021F4E06101433160207880060CD5E169EC
:102080005846DBF8002002F07002914204D2026848
:1020900022F070020A43026000F09AF80E492A68A2
:1020A0002B68C2F3032203F00F038A5CC95C02F0C1
:1020B0001F0201F01F01D040084A20FA01F111600F
:1020C0000749086007480068BDE8F05FFEF7A2BF57
:1020D0000020005218440258385A00081400002406
:1020E000100000240800002470B5144C3F22026048
:1020F000124A24680832131D114D04F0070444608D
:1021000016681C1D06F470668660166806F00F06D9
:10211000C660126802F0700202611A6802F0700272
:1021200042611A6802F4E0628261226802F0700281
:10213000C261286800F00F00086070BD10440258AA
:102140000020005230B500F043F80B4A0B490C4B0D
:1021500015681468C5F3032204F00F048A5C095D56
:1021600002F01F0201F01F01D040064A20FA01F1DF
:1021700019601060084630BD18440258385A0008EB
:10218000140000241000002400B5FFF7DBFF054910
:102190000968054AC1F30211515C01F01F01C840F2
:1021A00000BD00001C440258385A000800B5FFF773
:1021B000C9FF05490968054AC1F30221515C01F0D4
:1021C0001F01C84000BD00001C440258385A0008D6
:1021D000454970B545480968434B103B11F038023A
:1021E00008D00111082A03D0102A0BD0182A0BD0CE
:1021F000084670BD19688906FBD51968C1F3C1018D
:10220000C84070BD3A4870BD3749374D18310C1D74
:1022100024350A68096826682D6802F0030406F070
:102220000102C1F30511C5F3CC0515FB02F200EE66
:10223000102AB8EE400AE9B32F4ADFED2E0AB7EEB6
:10224000001A6CB1DFED2D1A012C01D0022C43D005
:1022500002EE101A1068F8EE422A81EEA22A1EE061
:102260001C68A40611D51B6801EE901A1168C3F30F
:10227000C103F8EE612AD84001EE900AC1F30800CC
:10228000F8EE611A81EEA22A0BE001EE901ADFED62
:102290001C2A00BFF8EE611A106882EEA12AC0F372
:1022A000080001EE900AF8EE611A40EE201A31EEB5
:1022B000810A00E015E022EE000A1068C0F3462013
:1022C000401C00EE900AF8EE600A80EE201ABCEE88
:1022D000C10A10EE100A70BD01EE901ADFED092A56
:1022E000D8E7002070BD0000104402580090D003D1
:1022F000001BB70000000039304402580024744A23
:102300000024744C001B374B2DE9F05F04007DD096
:10231000FF4F2078FE4D1837DFF8F493103DC007CB
:1023200048D0D9F80000396800F03800102815D0DE
:10233000182803D101F0030002280FD06068B0F51F
:10234000803F12D010B1B0F5A02F18D0286820F42B
:1023500080302860286820F4802009E02868800305
:1023600028D560680028D2D024E0286840F4803066
:102370002860606888B1FEF711FE064609E028680B
:1023800040F480202860F0E7FEF708FE801B6428F8
:102390006FD828688003F7D50CE0FEF7FFFD0646EE
:1023A00005E000BFFEF7FAFD801B6428F0D828681E
:1023B0008003F7D4207841F20308D54E0C3E800705
:1023C00069D5D9F80000396810F038000ED0182807
:1023D00001D188070AD0E06890B3296821F019017B
:1023E00001432960FEF7DAFD824631E028684007A4
:1023F00002D5E06800288AD0E168286820F019003A
:1024000008432860FEF7CAFD824607E0DFE000BF10
:10241000FEF7C4FDA0EB0A000228B9D828684007DF
:10242000F6D500BFFEF7B4FD40451BD82069402813
:1024300012D0316821F47C3141EA003030602AE06A
:1024400018E000BFFEF7AAFDA0EB0A0002289FD803
:1024500028684007F6D5E5E7306820F47C3040F482
:102460000030EBE7207C316821F0FE4141EA00605A
:10247000E4E70DE1286820F001002860FEF78EFDFA
:10248000824605E0FEF78AFDA0EB0A0002288DD8FF
:1024900028684007F6D42078C0065DD5D9F800003A
:1024A000DFF86CB2396800F03800ABF1040B082893
:1024B00010D0182803D101F0030001280AD0E069E8
:1024C0000028286838D040F080002860FEF766FDBC
:1024D000824623E02868C00523D5E069802876D1AC
:1024E0001FE0206A202821D0316821F0F84141EA1C
:1024F0008060306030E000BF94F82010DBF80020EE
:1025000022F07C5242EA0161CBF8001024E000BFC7
:10251000FEF744FDA0EB0A00022898D82868C00501
:10252000F6D5FEF735FD4045E6D8DAE7306820F00D
:10253000F84040F08040DCE720F080002860FEF7A3
:102540002DFD064605E000BFFEF728FD801B022892
:102550009DD82868C005F7D42078000729D56C4895
:102560006169643000298046016811D041F00101A1
:102570000160FEF713FD064605E000BFFEF70EFD05
:10258000801B0228C9D8D8F800008007F6D510E0D3
:1025900021F001010160FEF701FD064605E000BFE4
:1025A000FEF7FCFC801B022872D8D8F800008007D8
:1025B000F6D42078800623D5A0690028286810D09A
:1025C00040F480502860FEF7E9FC064605E036E15D
:1025D000FEF7E4FC801B02285AD828688004F7D54F
:1025E0000EE020F480502860FEF7D8FC064604E098
:1025F000FEF7D4FC801B02284AD828688004F7D450
:10260000207840074FD5DFF80C81D8F8001041F44E
:102610008071C8F80010FEF7C1FC064605E000BF57
:10262000FEF7BCFC801B642832D8D8F80000C00537
:10263000F6D5374EA068603601280AD008B10528C3
:1026400013D0306820F001003060306820F00400C2
:1026500002E0306840F001003060A06841F2883A42
:1026600090B1FEF79BFC80460AE0306840F0040021
:102670003060EEE7FEF792FCA0EB0801514507D869
:1026800030688007F6D50EE0FEF788FC804607E04C
:1026900084E000BFFEF782FCA0EB080151457DD825
:1026A00030688007F6D4606AB0B3DFF86480D9F888
:1026B000001008F120084FF6F87B08F10409C1F377
:1026C000C2010329A8F1040A69D00228286820F071
:1026D0008070286003D0FEF761FC044684E0FEF7BA
:1026E0005DFC064605E000BFFEF758FC801B022893
:1026F00077D828688001F7D4E26A40F2F33138686D
:1027000054F8283F884340EA02101843386004E038
:102710001044025800480258B5E0217B4346228904
:102720004FF4FE0C208A4FF0FE474902267D521ED0
:10273000401EA1F50071C2F308088AB2761E0CEAA9
:10274000004042EA08020243504607EA06610A4393
:102750001A60DAF8002022F00102CAF80020D9F845
:102760000020266A22EA0B0242EAC602C9F80020CB
:10277000DAF80010A26921F00C011143CAF8001028
:102780000168E26921F0020111430160016841F42E
:1027900080310160016841F4003101E021E027E06F
:1027A0000160016841F480210160016841F001018C
:1027B0000160286840F080702860FEF7EFFB044657
:1027C00005E000BFFEF7EAFB001B022809D82868D5
:1027D0008001F7D557E000BFFEF7E0FB001B0228A1
:1027E00002D90320BDE8F09F28688001F4D44AE0B4
:1027F00039680128D8F8000021D0A26A01F003034B
:1028000093421CD1E26AC1F305118A4217D1216BB0
:10281000C0F30802491E8A4211D1616BC0F34622FF
:10282000491E91420BD1A16BC0F30642491E914251
:1028300005D1E16BC0F30660491E814201D0012041
:10284000D0E7A16C4E46D9F80000C0F3CC0081421D
:1028500019D0DAF80000554620F00100CAF800004F
:10286000FEF79CFB4FEA0007FEF798FBB842FBD04F
:10287000A26C306820EA0B0040EAC2003060286891
:1028800040F0010028600020ACE7704770477047B7
:1028900010B5040003D094F83D0010B107E001200A
:1028A00010BD002084F83C00204600F022F80220F1
:1028B00084F83D002068211D00F0B4FF012084F859
:1028C000480084F83E0084F83F0084F8400084F813
:1028D000410084F8420084F8430084F8440084F8FE
:1028E000450084F8460084F8470084F83D00002045
:1028F00010BD704790F83D10012901D001207047AC
:10290000174A022180F83D100168CB6843F00103AB
:10291000CB600068904214D0B0F1804F11D01149C3
:1029200088420ED0104988420BD01049884208D006
:102930000F49884205D00F49884202D00E4988428B
:1029400007D181680D4A1140062906D0B1F5803FB4
:1029500003D0016841F001010160002070470000D0
:10296000000001400004004000080040000C00404E
:102970000004014000180040004001400700010031
:1029800070472DE9F041044600680027C6680569D4
:10299000A90713D5B10711D5FA1E026101212177CC
:1029A000206880698007204602D0FFF7E9FF04E035
:1029B00000F08BF8204600F089F82777680716D5D5
:1029C000700714D5226802206FF00401116120778E
:1029D0002068806910F4407F204602D0FFF7D0FFC6
:1029E00004E000F072F8204600F070F8277728071E
:1029F00015D5300713D5226804206FF00801116146
:102A000020772068C0698007204602D0FFF7B8FF12
:102A100004E000F05AF8204600F058F82777E8065E
:102A200016D5F00614D5226808206FF01001116148
:102A300020772068C06910F4407F204602D0FFF75D
:102A40009FFF04E000F041F8204600F03FF82777B0
:102A5000E80708D0F00706D021686FF00100086190
:102A6000204600F035F8280601D4A80408D5300621
:102A700006D521686FF4025008612046FFF706FF73
:102A8000E80508D5300606D521686FF48070086126
:102A90002046FFF7FAFE680608D5700606D52168BD
:102AA0006FF040000861204600F01CF8A8060AD527
:102AB000B00608D521686FF0200008612046BDE807
:102AC000F041FFF7E4BEBDE8F081704770470000B9
:102AD00000680349884201D1FEF766BA70470000DA
:102AE00000100040704730B590F88410012918D0CC
:102AF000012280F884202421C0F88810002220249C
:102B000001680B680D6823F0005325F001050D6086
:102B1000426601680B60C0F8884080F88420104647
:102B200030BD022030BD7047704770B5044690F844
:102B3000840001281DD0012284F884202420C4F8B8
:102B4000880020680568026822F00102026020689F
:102B5000826822F060620A438260204600F0D0FE64
:102B60002268202100201560C4F8881084F88400B1
:102B700070BD022070BD70B5044690F88400012835
:102B80001DD0012284F884202420C4F88800206805
:102B90000568026822F0010202602068826822F063
:102BA00060420A438260204600F0AAFE226820218B
:102BB00000201560C4F8881084F8840070BD0220DD
:102BC00070BD7047704770472DE9F04107680025D8
:102BD000044640F60F030226F8693968BA681842BD
:102BE0000AD183067ED501F0200302F0805C53EA0F
:102BF0000C0377D0616F74E1CF4BDFF840C3134013
:102C000001EA0C0C53EA0C0C6CD05FEAC07C0CD0CF
:102C10005FEAC15C09D54FF0010CC7F820C0D4F8B9
:102C2000907047F00107C4F89070870709D5D7075F
:102C300007D027683E62D4F8906046F00406C4F8D6
:102C4000906046070AD5D60708D0276804263E625A
:102C5000D4F8906046F00206C4F8906006070CD5E0
:102C600001F020061E4308D0266808233362D4F8FA
:102C7000903043F00803C4F8903003050BD54B01A6
:102C800009D526684FF400633362D4F8903043F0DE
:102C90002003C4F89030D4F89030002B3DD080064B
:102CA00009D501F0200002F08051084303D0616F84
:102CB00009B1204688472168D4F890008968490600
:102CC00002D410F0280F2AD0204600F0FFFE206822
:102CD000806840061ED52068083050E8001F21F0AB
:102CE000400100E021E040E80012002AF3D1D4F8CE
:102CF000800078B192490165D4F88000FDF7CCFEE0
:102D000000280AD0D4F88000016D00E02046BDE81C
:102D1000F04108472046FFF756FFBDE8F081204606
:102D2000FFF751FFC4F89050F7E7D4F86CC02023A8
:102D3000BCF1010F7ED15FEAC06C7BD55FEAC16C4C
:102D400078D51020386220688068400673D5D4F8A2
:102D500080107C4A0868904234D07A4A18329042F7
:102D600030D0784A303290422CD0764A4832904265
:102D700028D0744A6032904224D0724A783290420D
:102D800020D0704A903290421CD06E4AA8329042B5
:102D900018D06D4A904215D06B4A1832904211D02B
:102DA000694A303290420DD0674A4832904209D089
:102DB000654A6032904205D0634A7832904201D031
:102DC000614A903240680004000CA6D0B4F85C2040
:102DD0008242A2D9A4F85E00C869B0F5807F2FD0E6
:102DE000216851E8000F20F4807041E80002002AB9
:102DF000F6D12068083050E8001F21F0010140E8BA
:102E00000012002AF5D12068083050E8001F21F098
:102E1000400140E80012002AF5D1C4F88C30E56684
:102E2000216851E8000F20F0100041E80002002A5C
:102E3000F6D101E040E00BE0D4F88000FDF77CFC27
:102E40002667B4F85C00B4F85E10401A81B22FE037
:102E5000B4F85C00B4F85E10B4F85E20401A81B299
:102E6000002AB2D00029B0D0226852E8000F20F426
:102E7000907042E80007002FF6D1344F206800F12F
:102E8000080050E8002F02EA070240E8002CBCF1DD
:102E9000000FF3D1C4F88C30E5666567206850E810
:102EA000002F22F0100240E80023002BF6D1266705
:102EB0002046FFF738FE30E7C60209D5560207D58F
:102EC0004FF4801038622046BDE8F041FFF77ABE2B
:102ED00006060AD501F0800602F40002164304D06B
:102EE000A16F00297FF412AF17E7420611D54A06F9
:102EF0000FD52046026852E8001F21F0400142E849
:102F00000014002CF6D1C0F88830856700F02EF947
:102F100003E7020206D54A0004D52046BDE8F04189
:102F2000FFF74FBEC001C6D50029C4DA2046BDE870
:102F3000F041FFF7F9BD000001000010200100047E
:102F4000B73A00081000024010040240FEFFFFEFF5
:102F500010B5040003D0D4F8880010B107E00120B8
:102F600010BD002084F88400204600F027F82420BB
:102F7000C4F888002068016821F001010160A06A9E
:102F800010B1204600F0DEFC204600F0E1FD0128F3
:102F9000E6D02068416821F4904141602068816852
:102FA00021F02A0181602068016841F0010101607F
:102FB0002046BDE8104000F029BD000070B5B6B055
:102FC0000446142130A8FDF7FBFAC0216846FDF73E
:102FD000F7FA20680025344C3449334E083C8842C7
:102FE0002DD100201E950221CDE900106846FEF784
:102FF00077FA08B1FDF79DFB306840F00040306083
:10300000306800F000403590206840F010002060EB
:10301000206830AB122100F0100035900320082208
:1030200083E82300224830A9CDE93352FDF788FE1A
:10303000002205215320FEF7A1F8532030E01D495E
:1030400088422FD100201E950221CDE9001068464C
:10305000FEF746FA08B1FDF76CFB306840F48020BB
:103060003060306800F480203590206840F0040023
:103070002060206830AB022100F0040035904FF44E
:103080004060072283E823000B4830A9CDE9335282
:10309000FDF756FE002205212720FEF76FF82720B6
:1030A000FEF75EF836B070BDE8440258007C004080
:1030B0000010025800480040000802582DE9F8436B
:1030C0000446D0F88800984616460D46202802D0BF
:1030D0000220BDE8F883A5B19EB10021C4F890108C
:1030E0002120C4F888001834FDF758FF814654F8B1
:1030F000100CA687E6872027183CB0F5805F02D029
:1031000003E00120E5E7206910B12E46002510E01C
:1031100000260EE08021204600F0F0FEC0B9DEB1AE
:1031200016F8010B21688862B4F85600401EA4F816
:103130005600B4F856004B464FF00002CDF8008020
:103140000028E7D14FF04001204600F0D7FE48B1FB
:10315000C4F888700320BCE735F8020B2168C0F37F
:103160000800E0E7C4F888700020B2E77047FEE787
:10317000044A0021044810B500F098FF0349086094
:1031800010BD0000EC590008B9350008000000240B
:103190002DE9F04786B014216846FDF711FA3C4846
:1031A000016841F010010160016801F01001059112
:1031B000016841F080010160016801F08001059122
:1031C000016841F008010160016801F00801059102
:1031D000016841F004010160016801F004010591FA
:1031E000016841F00201016000680022DFF8A4805C
:1031F0000C2100F0020005904046FDF7C4FEDFF808
:1032000098A04FF47C56002231465046FDF7BBFE95
:10321000DFF888904FF40077002239464846FDF7E2
:10322000B2FE0024694601250C200090CDE901542E
:1032300040460394FDF784FD00966946CDE90154AC
:1032400050460394FDF77CFD00976946CDE9015493
:1032500048460394FDF774FD28036946CDE9000450
:1032600048460294FDF76CFD9C206946CDE90004B8
:1032700050460294FDF764FD80206946CDE90004C4
:1032800007480294FDF75CFD06B0BDE8F08700003A
:10329000E044025800100258000C0258000802587E
:1032A000000402581848002110B5164C0C224FF4A7
:1032B000E1330460C0E90131C160C0E904128161F9
:1032C000C161016241628162FFF742FE08B1FDF710
:1032D00030FA0D480021FFF74EFC08B1FDF729FA3E
:1032E00009480021FFF721FC08B1FDF722FA064842
:1032F000FFF7F9FB002803D0BDE81040FDF719BA2D
:1033000010BD0000007C00409800002418480021F7
:1033100010B5164C0C224FF4E1330460C0E90131C2
:10332000C160C0E904128161C161016241628162D0
:10333000FFF70EFE08B1FDF7FCF90D480021FFF77D
:103340001AFC08B1FDF7F5F909480021FFF7EDFB7C
:1033500008B1FDF7EEF90648FFF7C5FB002803D0DA
:10336000BDE81040FDF7E5B910BD00000048004081
:103370002C010024FEE7FEE72DE9F047454D044609
:1033800089464FF0000A2868C04380070AD0414EA2
:10339000283E306820F080603060FDF7FFFD074672
:1033A000B04608E00120BDE8F08700BFFDF7F6FD5C
:1033B000C01B022867D8D8F800000001F6D42068A6
:1033C00029684FF4FE0721F47C313E0241EA0030C7
:1033D0002860207AA389B4F804C040022D4D2D49FD
:1033E0005B1E227CACF1010C1035091DA0F50070AC
:1033F00080B2521ECCF3080C07EA034340EA0C00EB
:10340000184306EA0262104328600868626920F0E7
:10341000C000104308600A68A06922F0200202433D
:103420000A60281D0A6822F010020A6002684FF63E
:10343000F873E4699A4342EAC40202600868B9F189
:10344000000F40F010020A6011D00868B9F1010FB6
:1034500011D040F400100860D8F80000444640F055
:103460008060C8F80000FDF799FD05460DE008688A
:1034700040F40020EFE740F48010ECE7FDF78EFD0C
:10348000401B022801D903208DE720680001F5D5F3
:10349000504688E7284402582DE9F047454D044638
:1034A00089464FF0000A2868C04380070AD0414E81
:1034B000283E306820F080503060FDF76FFD0746F1
:1034C000B04608E00120BDE8F08700BFFDF766FDCB
:1034D000C01B022867D8D8F800008000F6D42088E6
:1034E00029684FF4FE0721F07C713E0241EA00504A
:1034F0002860207AA389B4F804C040022D4D2D49DC
:103500005B1E227CACF1010C1835091DA0F5007082
:1035100080B2521ECCF3080C07EA034340EA0C00C9
:10352000184306EA0262104328600868626920F4C2
:103530004060104308600A68A06922F400720243E8
:103540000A60281D0A6822F480720A6002684FF639
:10355000F873E4699A4342EAC40202600868B9F168
:10356000000F40F480720A6011D00868B9F1010FB1
:1035700011D040F080700860D8F80000444640F058
:103580008050C8F80000FDF709FD05460DE0086809
:1035900040F48000EFE740F40000ECE7FDF7FEFCAC
:1035A000401B022801D903208DE720688000F5D553
:1035B000504688E7284402580124194DDFF86480FA
:1035C0004FF4007A270341F288394FF4FA665146E6
:1035D00001222846FDF7D7FC2CB101F079FA12A0A0
:1035E00000F0AAFA00243046FDF798FB3946284639
:1035F000FDF7BCFC68B10EA000F09EFA0821404621
:10360000FDF7B9FC4846FDF789FB012000F00FFDEE
:10361000DDE701F055FA09A000F08EFA0124EDE78C
:103620000008025800100258CEFCBACF000000007B
:10363000C3BBD3D0B7B4C0A100000000CBC9BFAAA0
:103640000000000010B54FF0E020006901F0FEFF1F
:10365000012803D0BDE8104001F000BD10BD0000FE
:1036600030B59DB04C216846FCF7AAFF202113A875
:10367000FCF7A6FF0220FDF7B3FD2D4900242D48DD
:103680000A6822F001020A600A68026842F44042B5
:103690000260026802F440421B9202689204FCD568
:1036A000254A136843F002031360126802F0020215
:1036B0001B92026842F44042026002680A6842F0CB
:1036C00001020A60096801F001011B910168890487
:1036D000FCD502200090402504950121039104228D
:1036E0000B923C23CDE90904CDE90C300FAB0E90D1
:1036F0000C2183E8130068461294FEF705FE08B11A
:1037000072B6FEE708221A95CDE91625D30113AA51
:103710003F200321CDE9185382E81300042113A8A8
:10372000FEF7B4FB002801D072B6FEE71DB030BD35
:103730002C04005818480258F44402582C48F0B59C
:103740002C4A016841F470010160106800F00F001C
:10375000072804D2106820F00F00C01D1060264911
:103760000020254C10340B68244D43F001030B60FE
:1037700020600B682B400B60136803F00F03072BCE
:1037800004D9136823F00F03DB1D13601A4C1C4A85
:1037900018341C4B261D371D2060174C1A4D283439
:1037A0003060261D3860371D23603B1D35601C1DB1
:1037B0003A60251D2E1D1860331D2260286032607E
:1037C00018600A680C4B114C22F4802260330A60A6
:1037D000186020686FF30F00B0F1005F03D20C494E
:1037E0000120C1F8080143F2D2000A490860F0BD87
:1037F00088ED00E000200052004402587FEDF6EA18
:1038000080020101000202020000FF010010005CC2
:1038100000800051004000520148FFF7B2B800009C
:10382000C00100242DE9F0472A4B4FF0804A2A4D71
:1038300002689842294E2A4F2A4C09D0504507D099
:10384000A84205D0B04203D0B84201D0A04205D171
:10385000D1F804C022F070024CEA0202DFF888C0FE
:10386000DFF888809842DFF888900FD050450DD05F
:10387000A8420BD0B04209D0B84207D0A04205D030
:10388000604503D0404501D0484503D1CD6822F4BE
:1038900040722A434D6922F080022A430260984216
:1038A0008A68C2620A68826207D0A04205D0604579
:1038B00003D0404501D0484501D109690163012188
:1038C00041610169C90703D0016921F0010101616A
:1038D000BDE8F087000001400004004000080040FF
:1038E000000C004000040140004001400044014041
:1038F000004801400148FFF767B900009800002424
:1039000030B5416EB9B101680D4B03F108048A6806
:103910008968C2F34262490F5D5C615C2D01B5FBB1
:10392000F1F1A0F86A10995CA25C0901B1FBF2F117
:10393000A0F8681030BD0121A0F86A10F8E7000077
:10394000285A000890F82810090706D50168836BEB
:103950004A6822F400421A434A6090F82810C907C6
:1039600006D00168C36A4A6822F400321A434A60EA
:1039700090F82810890706D50168036B4A6822F47D
:1039800080321A434A6090F82810490706D501682A
:10399000436B4A6822F480221A434A6090F8281048
:1039A000C90606D50168C36B8A6822F480521A439F
:1039B0008A6090F82810890606D50168036C8A6829
:1039C00022F400521A438A6090F82810490611D553
:1039D0000168436C4A6822F480121A434A60416CC1
:1039E000B1F5801F06D10168836C4A6822F4C002D9
:1039F0001A434A6090F82810090606D50168C26C7F
:103A0000486820F400201043486070472DE9F843CF
:103A100000250446C0F89050FDF7C0FA80462068A3
:103A200020266FF07E470068000713D5002243462A
:103A300031042046009700F061FA58B1216851E83E
:103A4000000F20F0800041E80002002AF6D1C4F8FF
:103A5000886021E020680068400722D500224346A4
:103A60004FF480012046009700F048FAC8B1206862
:103A700050E8001F21F4907140E80012002AF6D1AE
:103A80002068083050E8001F21F0010140E80012D2
:103A9000002AF5D1C4F88C60032084F88450BDE876
:103AA000F883C4F88860C4F88C60E5662567002058
:103AB00084F88450F3E710B5806B0021A0F85E1005
:103AC000A0F85610FFF77FF810BD000010B502688F
:103AD00052E8001F21F4907142E80013002BF6D148
:103AE0000E4B0268083252E8001F194042E80014E9
:103AF000002CF6D1C16E012908D1026852E8001FDE
:103B000021F0100142E80013002BF6D10021202201
:103B1000C0F88C20C166416710BD0000FEFFFFEFBA
:103B200001B5044801224FF6FF736946FFF7C6FA54
:103B300008BD00002C01002410B5040006D002E0EE
:103B4000FFF7EEFF641C20780028F9D110BD0000BB
:103B50002DE9F04304468068D84E87B0D84B2168E1
:103B6000D4E90427D4F81CC010430A68002547EAAA
:103B70000C073843324002430A602068E26841681B
:103B800021F44051114341602268A1699A4201D059
:103B9000206A01439768DFF82CC3CB4ECB4807EA75
:103BA0000C070F4397602168676ACA6A22F00F0208
:103BB0003A43CA622268B2420ED1006800F038006F
:103BC000182873D047DCB8B3082879D010286FD1F3
:103BD00078E028287ED17BE0BD498A4209D100687F
:103BE00000F00700062875D2DFE800F0546A6C6E1A
:103BF0007072B8498A4209D1006800F007000628AF
:103C000068D2DFE800F0475D5F616365B2498A42D0
:103C100009D1006800F0070006285BD2DFE800F059
:103C20003A5052545658AD498A420BD1006800F0C0
:103C3000070006284ED200E010E0DFE800F02B413C
:103C400043454749A6498A420AD1006800F0380036
:103C5000182839D0B7DD2028BBD13CE001203AE05C
:103C6000A0498A4209D1006800F00700062831D235
:103C7000DFE800F01026282A2C2E9B498A420BD11F
:103C8000006800F00700062824D2DFE800F00319DE
:103C90001B1D1F2100201EE09A421BD18B48001DD6
:103CA000006800F00700062814D202E00CE007E0EC
:103CB00010E0DFE800F0030507090B0D02200AE021
:103CC000042008E0082006E0102004E0202002E0A4
:103CD000402000E080208549DFF814829A42854A1E
:103CE0004FF400434FEA21174FF000064ED1102841
:103CF0001AD006DC022809D004280BD008287CD171
:103D00000DE020283ED0402877D13DE0FDF792FA23
:103D1000014610E06846FDF79FFA01990BE003A801
:103D2000FDF73CFB049906E01068800605D5106895
:103D3000C0F3C100C140002970D0606A676838F8DC
:103D4000102007EB4703B1FBF2F0834255D8B0EBEC
:103D5000073F52D8002308461946FCF76DFB024680
:103D60007808130E120243EA012110183A467141F5
:103D70000023FCF761FB604AA0F5407191423CD8FA
:103D800021688FE03946D8E71946D6E7D4F81CC039
:103D90004FF6EF799C4546D1082819D005DC58B17B
:103DA00001280CD0042875D10DE0102815D020284A
:103DB00035D040286ED134E0FEF7E6F901E0FEF799
:103DC000F5F9014610E06846FDF746FA01990BE067
:103DD00003A8FDF7E3FA049906E01068800604D50D
:103DE0001068C0F3C100C140C1B1636A606838F8AF
:103DF0001330B1FBF3F1490000E04BE001EB50015F
:103E0000B1FBF0F0A0F11001494543D84FF6F07333
:103E10002168C0F342021840104343E043E03946B2
:103E2000E3E71946E1E7082819D005DC58B1012875
:103E30000CD004282ED10DE0102815D020282BD02E
:103E4000402827D12AE0FEF79FF901E0FEF7AEF9FE
:103E5000014610E06846FDF7FFF901990BE003A861
:103E6000FDF79CFA049906E01068800604D51068F6
:103E7000C0F3C100C140B1B1636A606838F8133063
:103E8000B1FBF3F101EB5001B1FBF0F0A0F1100137
:103E9000494505D9012506E03946EDE71946EBE726
:103EA000216880B2C8600120A4F86A00A4F8680004
:103EB00028466667A66707B0BDE8F083F369FFCFC1
:103EC000000C0058FFF4FF11001001405444025848
:103ED0000044004000480040004C004000500040BA
:103EE0000014014000780040007C00400090D003A6
:103EF000105A000800440258FFFC0F002DE9F0475B
:103F0000994617460D460446089E4FF0000833E0D8
:103F1000701C31D0FDF742F8A0EB0900B04218D870
:103F2000BEB120680168490726D5802D24D0402DD8
:103F300022D0C169C94309070DD40825056220466E
:103F4000FFF7C4FDC4F89050012084F88480BDE8D8
:103F5000F0870320FBE7C069C04300050CD421684B
:103F60004FF4006008622046FFF7B0FD2021C4F83E
:103F7000901084F88480ECE72068C06935EA00007E
:103F800004D00020B842C3D00020E0E70120F9E7C8
:103F90000148FEF719BE00002C010024FEE70907C6
:103FA00000284FEA116104DB00F1E02080F80014E2
:103FB000704700F00F0000F1E02080F8141D7047FA
:103FC0001FB500240094019402940394FDF796F821
:103FD00001208DF80C001F218DF8081087228DF824
:103FE00009208DF80D008DF8000068468DF80A4014
:103FF0008DF80E408DF8014001948DF80B408DF83E
:104000000F40FDF74DF80420FDF786F8FCF7D4FFCC
:10401000FFF726FBFFF7BCF8FFF778F9FFF742F947
:1040200000F014F8FFF7A4F800F024F8FEE710B54C
:104030000146EFF3058010B16FF0050404E00024A1
:1040400011B1084600F094FE204610BDEFF3058044
:10405000002802D06FF0050070470548016811B1D3
:104060004FF0FF30704701210160002070470000D1
:104070006800002410B5EFF30580002802D06FF02F
:10408000050010BD07480168012902D04FF0FF303C
:1040900010BD054A002111700221016000F0D6FE1A
:1040A000002010BD680000241FED00E02DE9F04362
:1040B00085B00B464FF000070497EFF30581002908
:1040C0004ED100284CD080244FF0180C8946491E50
:1040D00052B3166806B1B146956905B1AC46ACF16C
:1040E0000105382D03D2157915F0010F03D005B065
:1040F0000020BDE8F083556905B1AC08D2F808800E
:10410000B8F1000F07D0D6685C2E04D3166916B13B
:104110000DB1012109E0B8F1000F06D1D56825B92C
:10412000156915B9002100E00021012901D061B114
:1041300016E091681269CDF800C001922246029102
:10414000494601F053FA04900AE004A9CDF800C0F2
:10415000A2B20191494601F013FA012800D0049758
:10416000049805B0BDE8F0832DE9F04104460F4600
:10417000134EF5683068001D00F0BAFCB4F1FF3F43
:1041800007D137B13068BDE8F041011D0D4800F09E
:1041900004BD2C4430684460AC4206D23068011D36
:1041A000B06BBDE8F04100F0DBBC3068011D706B06
:1041B00000F0D6FCB06A844200D2B462BDE8F0815F
:1041C00018000024FC06002470B5044600F0F2FC40
:1041D0001C4DA868401CA860286810B1686938B1F7
:1041E0000CE02C60A868012808D100F093F905E0E4
:1041F0002868E16AC06A884200D82C60686A401C5E
:1042000068626064E06A2969884200D9286100EB2D
:1042100080000D4901EB8000211D00F0BEFC00F084
:10422000E9FC686900280CD02868E16AC06A884205
:1042300007D206494FF080500860BFF34F8FBFF39D
:104240006F8F70BD180000244C02002404ED00E0C4
:1042500038B500F0AFFC0F4C2068B8B90E4800F03C
:1042600071FC0E4800F06EFC0B48E06014302061D9
:104270000B4B0020102100900A2003F1500200F0A7
:1042800003FF206010B107A100F038FDBDE8384001
:1042900000F0B0BC540000240008002414080024DE
:1042A00010070024546D72510000000070B50D4CD1
:1042B0006068002815D00C4E00F07CFCF068C568E2
:1042C000281D00F015FCA068401EA0606068401E1C
:1042D000606000F08FFC284600F051F8606800280C
:1042E000EAD170BD18000024E80600240B46026CD9
:1042F000002A0CD0C1681144C160D0F808C06145E3
:1043000001D30168C160C1681846FCF70CB9704759
:104310002DE9F041044616460027A56B226C002AC1
:1043200010D0C6B1E068FCF7FEF8E168206C091A0D
:10433000E1602268914202D2A168081AE060022E70
:1043400016D017E02068A8B9A06801F0F9F907466F
:104350000020A0600EE06068FCF7E5F8216C606862
:1043600008446060A168884204D32068606001E06E
:1043700005B16D1E681CA0633846BDE8F08110B51C
:10438000044694F8591000290BD0012911D00229B4
:1043900014D0502080F31188BFF34F8FBFF36F8F7D
:1043A000FEE7206B00F03CFC2046BDE8104000F02A
:1043B00037BC2046BDE8104000F032BC10BD000004
:1043C0000749CA681168002904D00021016019B1A9
:1043D000002070470121F9E7D068006870470000AD
:1043E000540000244FF47051104810F0070F06D00D
:1043F000C01D20F007000D49411AC1F570510C4A4B
:104400001060002353600144083921F00701183A75
:1044100011604B600B600B1A436001604068906054
:1044200050604FF00040506170470000E00E0024E3
:1044300084000024074E4FF08054074DFFF736FFED
:1044400030680128FAD92C60BFF34F8FBFF36F8F0C
:10445000F4E700004C02002404ED00E070B51D46B6
:10446000049C002909D02260E063216401212046D8
:1044700000F042FE84F84C5070BD2460F4E72DE952
:10448000F05F82460E4690469B460B9F0A9D0C9C11
:10449000A5224FEA8801206BFCF78AF8206BA8F16F
:1044A000010100EB810020F007094FF0000866B120
:1044B00000202218315C82F83410315C11B1401CAC
:1044C0001028F6D384F8438001E084F83480382D36
:1044D00000D33725E562E564C4F85080201D00F064
:1044E0003CFB04F1180000F038FB2461C5F13800F2
:1044F000A0616462C4F8548084F858805A465146DA
:10450000484600F0C7FA2060002F00D03C60BDE8AC
:10451000F09F000070B500240F4D04EB840005EB04
:10452000800000F00FFB641C382CF6D30B4800F021
:1045300009FB0B4800F006FB0A4800F003FB0A48A1
:1045400000F000FB094800F0FDFA09480349416307
:104550001431816370BD00004C020024AC060024BD
:10456000C0060024D4060024E8060024FC0600242B
:10457000180000244DF8044D144900E011460A6863
:104580008242FBD34B6803EB010C844503D14068A6
:104590001844486008460C68D0F804C00CEB0003CF
:1045A000A3420CD10A4B1B689A4206D0526862445F
:1045B00042600A681268026002E0036000E0026084
:1045C000814200D008605DF8044B704784000024ED
:1045D0006C00002410B50024416000619142DFF8B6
:1045E00038C00BD8D11A8269914201D3012410E05E
:1045F000011DDCF8100000F0B3FA0AE09A4203D281
:10460000994201D3012404E0011DDCF80C0000F004
:10461000A7FA204610BD00005400002410B504463F
:1046200000F0C8FAA06B20B1002400F0E3FA2046A5
:1046300010BD0124F9E710B5044600F0BBFAA06BE9
:10464000E16B884201D1012400E0002400F0D2FA9D
:10465000204610BDF8B505460E461748C068C0682C
:10466000C468201D00F044FA94F8280010F0040FEC
:1046700018D0A0692B46324641192046FFF7AAFF01
:10468000A0B100202A46034601460090204601F0D2
:104690006DF958B9502080F31188BFF34F8FBFF3E5
:1046A0006F8FFEE720F0010084F82800216A01B036
:1046B0002046BDE8F04008475400002430B587B0DC
:1046C000414D002202A9286800F076FE002875D02E
:1046D0000298002803DA039A0599049890470298F3
:1046E000002864DB049C606910B1201D00F000FA12
:1046F00001A800F0B3F8024602980A2857D2DFE872
:1047000000F00505052F364D05052F3694F82800D5
:1047100040F0010084F828000398A1690346014491
:104720002046FFF757FF002841D0216A20468847DE
:1047300094F8280010F0040F39D00020009003985E
:104740000023A16942181946204601F00FF970BBF9
:10475000502080F31188BFF34F8FBFF36F8FFEE7B8
:1047600094F8280020F0010084F828001FE094F855
:10477000280040F0010084F828000398A06128B1C7
:10478000811813462046FFF725FF10E0502080F3E4
:104790001188BFF34F8FBFF36F8FFEE794F82800A7
:1047A00010F0020F0CD020F0010084F828002868D7
:1047B000002202A900F000FE002889D107B030BD18
:1047C000204600F02DFAF2E754000024F8B5054623
:1047D0000C4600F083FB684600F040F8064600985F
:1047E00010B101F029F8F8BD44B9B54206D801F07E
:1047F00023F831462846FFF72DFFF8BD0C481CB1C1
:104800000169096891B100240068A91B224600F0E3
:1048100089FA01F011F80028EFD106494FF08050D5
:104820000860BFF34F8FBFF36F8FF8BD0124EBE734
:104830005400002404ED00E00749486B006800289C
:1048400005D0486BC068C0684068886270474FF008
:10485000FF308862704700001800002470B50446DD
:1048600000F002FF0546074EB068854204D200F012
:104870000BF80120206001E000202060B560284690
:1048800070BD000054000024F8B51C4EF0680068AC
:10489000002826D00027F068C0680568C468201D7D
:1048A00000F026F9216A2046884794F8280010F085
:1048B000040F12D0A0692844A84206D96060246180
:1048C000211DF06800F04CF907E000232A46194644
:1048D0002046009701F04AF840B1F06800680028CF
:1048E000D9D1F0683169F1603061F8BD502080F3B2
:1048F0001188BFF34F8FBFF36F8FFEE75400002482
:104900000A484068B0F1FF3F07D0502080F311887B
:10491000BFF34F8FBFF36F8FFEE7502080F31188F6
:10492000BFF34F8FBFF36F8FFEE700008C000024B2
:1049300082B001A8FFF744FD0199FFF747FFFFF799
:10494000BDFEF6E770B5044600F034F994F9455021
:10495000002D0CDD606A50B104F1240000F030FF3E
:1049600008B100F035FA681E45B2002DF2DC4FF0B8
:10497000FF3684F8456000F03DF900F01BF994F92A
:104980004450002D0CDD206950B104F1100000F0FE
:1049900017FF08B100F01CFA681E45B2002DF2DCCA
:1049A00084F84460BDE8704000F024B92DE9F0417E
:1049B0000546002600F092FA344F386808B9FFF730
:1049C00011FD7869054251D19DB1083515F0070FE9
:1049D0000FD005F00700C0F10800054415F0070FDF
:1049E00007D0502080F31188BFF34F8FBFF36F8F34
:1049F000FEE7002D3AD07868854237D8244908462A
:104A0000046801E0214604466068A84202D220689A
:104A10000028F7D13868844228D0086800F10806D9
:104A2000206808606068411B10290FD9601910F0D8
:104A3000070F07D0502080F31188BFF34F8FBFF3CB
:104A40006F8FFEE741606560FFF794FD61687868ED
:104A5000401A7860BA68904200D2B860786908431A
:104A6000606000202060F868401CF86000F0E4FE00
:104A700016F0070F07D0502080F31188BFF34F8F37
:104A8000BFF36F8FFEE73046BDE8F0816C00002475
:104A900084000024001F4FF080730360001F21F08A
:104AA00001010160001F0549016014380260001F08
:104AB0006FF00201016020387047000001490008D2
:104AC000024800224FF48071FCF75DBA000C0258D6
:104AD0000122054810B51102FCF755FABDE8104057
:104AE00002480421FCF747BA000C02580010025893
:104AF0000169436882689A60836842685A604A68BC
:104B0000824201D182684A60002202610868401E28
:104B10000860086870470000034B036003F15C0005
:104B2000086080201060704728080024044B036050
:104B300003F15C0008604FF4807010607047000063
:104B4000840A002400F1080141604FF0FF328260C6
:104B5000C16001610021016070470021016170475F
:104B60004DF8044DD1F800C0BCF1FF3F02D000F178
:104B7000080202E0026904E01A4653681C686445B2
:104B8000FAD953684B6099608A6051600861016886
:104B9000491C01605DF8044B704742684A609368A5
:104BA0008B6093685960916008610168491C0160DD
:104BB00070470000502080F31188BFF34F8FBFF380
:104BC0006F8F0A494868401C486001280CD108488A
:104BD000006810F0FF0F07D0502080F31188BFF35A
:104BE0004F8FBFF36F8FFEE7704700008C000024EB
:104BF00004ED00E009494868002806D0401E4860DE
:104C0000002801D180F311887047502080F311886B
:104C1000BFF34F8FBFF36F8FFEE700008C000024BF
:104C200070B500282AD0A0F10804154D60686969A4
:104C3000084207D1502080F31188BFF34F8FBFF394
:104C40006F8FFEE722683AB1502080F31188BFF3DE
:104C50004F8FBFF36F8FFEE78843606000F03EF92F
:104C600060686968084468602046FFF783FC28692B
:104C7000401C2861BDE8704000F0DEBD70BD000042
:104C80006C0000244FF0E0200021016181614FF4AD
:104C90007A7204490968B1FBF2F1491E41610721AA
:104CA000016170471000002410B5FBF7A1FB11490A
:104CB00010280ED300F1E02090F8F0030A7890421B
:104CC00007D2502080F31188BFF34F8FBFF36F8F4F
:104CD000FEE709480068896800F4E060884207D967
:104CE000502080F31188BFF34F8FBFF36F8FFEE723
:104CF00010BD00008C0000240CED00E00022084BE9
:104D000053F832C0BCF1000F03D0521C082AF7D36D
:104D1000704743F8321003EBC2014860704700004F
:104D20000C02002470B504460D461646FFF742FFFC
:104D300094F94400B0F1FF3F4FF0000001D184F836
:104D4000440094F94510B1F1FF3F01D184F84500CA
:104D5000FFF750FFA06B28B904F124003246294622
:104D600000F056F82046BDE87040FFF7EBBD0000AC
:104D7000024610B50020002A12D00F48006B38B14F
:104D8000502080F31188BFF34F8FBFF36F8FFEE782
:104D900000F0A4F800211046FFF7E6F900F04CFD02
:104DA000002807D105494FF080500860BFF34F8FAE
:104DB000BFF36F8F10BD00001800002404ED00E069
:104DC00002490A6A0260C9684160704718000024FD
:104DD00001490120C86170471800002410B50C4635
:104DE00000280BD0094A126802F11801FFF7B8FE3B
:104DF0002046BDE810400121FFF7B6B9502080F3EE
:104E00001188BFF34F8FBFF36F8FFEE718000024A8
:104E100070B50D46144600280DD00B4909681831AD
:104E2000FFF7BBFE0CB14FF0FF3521462846BDE829
:104E30007040FFF799B9502080F31188BFF34F8F6E
:104E4000BFF36F8FFEE700001800002430B587B075
:104E500000250695059504AA05A906A8FFF75CFE9E
:104E600006980023059902901A48049A009501912A
:104E700016A100F0BBFB184CE06208B1012000E075
:104E80000020012801D100F03DFD01280AD0B0F139
:104E9000FF3F19D1502080F31188BFF34F8FBFF32C
:104EA0006F8FFEE7502080F31188BFF34F8FBFF361
:104EB0006F8F4FF0FF30A06201206061E56007B0A6
:104EC000BDE8304000F048B807B030BD49444C451B
:104ED0000000000035440008180000240248016B5F
:104EE000491C01637047000018000024184B186B20
:104EF000002802D00120D86170470020D8611869CD
:104F0000144900EB800251F822203AB9C0B1401E8A
:104F100000EB800251F82220002AF7D000EB80023B
:104F200001EB82014A6852684A6001F1080C62454F
:104F300001D152684A604968C968196018617047B0
:104F4000502080F31188BFF34F8FBFF36F8FFEE7C0
:104F5000180000244C02002410B582B038480168C3
:104F6000384A914207D1502080F31188BFF34F8F08
:104F7000BFF36F8FFEE700683349884207D15020A6
:104F800080F31188BFF34F8FBFF36F8FFEE72F4978
:104F900008780190FF200870087800909DF80000C4
:104FA0009DF8002000F0F000904207D0502080F3E0
:104FB0001188BFF34F8FBFF36F8FFEE79DF800009E
:104FC000234C00F0500020700720A0609DF80000E6
:104FD00010F0800F0BD0A068401EA0609DF800006C
:104FE000400000909DF8000010F0800FF3D1A06801
:104FF000032807D0502080F31188BFF34F8FBFF3F1
:105000006F8FFEE74FF44070A06001980870114860
:10501000016841F470010160016841F07041016074
:10502000FFF730FE00206060FBF7AAF90A4801682C
:1050300041F040410160FBF78FF902B0002010BD44
:1050400000ED00E071C20F4170C20F4100E400E0CA
:105050008C00002420ED00E034EF00E010B550207B
:1050600080F31188BFF34F8FBFF36F8F00F002FB07
:1050700018B104494FF080500860002080F3118877
:1050800010BD000004ED00E038B5049D002804D0F8
:105090005BB102B189B1C2B120E0502080F3118828
:1050A000BFF34F8FBFF36F8FFEE7502080F311885F
:1050B000BFF34F8FBFF36F8FFEE7502080F311884F
:1050C000BFF34F8FBFF36F8FFEE739B1502080F3EE
:1050D0001188BFF34F8FBFF36F8FFEE74FF0500C77
:1050E000CDF800C01C46012384F846302B460094BE
:1050F000FFF7B4F9204638BD70B504460D46002CC4
:1051000025D0FFF757FD226CE16B206801FB020000
:10511000A0600020A06320686060E16B226C491EE3
:10512000206801FB0200E0604FF0FF3084F844008B
:1051300084F845009DB104F11000FFF703FD04F170
:105140002400FFF7FFFCFFF755FD012070BD502044
:1051500080F31188BFF34F8FBFF36F8FFEE7206995
:105160000028F0D004F1100000F02AFB0028EAD05B
:1051700004494FF080500860BFF34F8FBFF36F8F2B
:10518000E1E7000004ED00E02DE9FF4782B00446AE
:105190008A461F460025002C03D0BAF1000F08D024
:1051A00011E0502080F31188BFF34F8FBFF36F8F52
:1051B000FEE7206C38B1502080F31188BFF34F8F89
:1051C000BFF36F8FFEE7022F0AD1E06B012807D0F3
:1051D000502080F31188BFF34F8FBFF36F8FFEE72E
:1051E00000F034FA48B9049838B1502080F311889F
:1051F000BFF34F8FBFF36F8FFEE7DFF8F890002605
:105200004FF08058FFF7D6FCA06BE16B884205D3C6
:10521000022F03D0049808B335B329E03A4651462B
:105220002046FFF775F8616A59B104F1240000F0D7
:10523000C7FA68B1C9F80080BFF34F8FBFF36F8F13
:1052400006E028B1C9F80080BFF34F8FBFF36F8F1E
:10525000FFF7D0FC06B00120BDE8F087FFF7CAFCDD
:1052600006B00020BDE8F0876846FFF7A9FD0125DC
:10527000FFF7C0FCFFF732FEFFF79CFC94F94400F7
:10528000B0F1FF3F01D184F8446094F94500B0F1DA
:10529000FF3F01D184F84560FFF7ACFC04A96846E4
:1052A00000F02EF940B12046FFF74CFB00F0C4FAA5
:1052B00006B00020BDE8F0872046FFF7BCF990B1AA
:1052C000049904F11000FFF789FD2046FFF73AFB2F
:1052D00000F0B2FA002895D1C9F80080BFF34F8FD3
:1052E000BFF36F8F8EE72046FFF72CFB00F0A4FA88
:1052F00088E7000004ED00E02DE9F0470446894608
:1053000017461E46002C03D0B9F1000F08D011E05B
:10531000502080F31188BFF34F8FBFF36F8FFEE7EC
:10532000206C38B1502080F31188BFF34F8FBFF34A
:105330006F8FFEE7022E0AD1E06B012807D05020C4
:1053400080F31188BFF34F8FBFF36F8FFEE7FFF736
:10535000ABFC5020EFF3118880F31188BFF34F8F1F
:10536000BFF36F8FA06BE16B884206D3022E04D08F
:10537000002088F31188BDE8F08794F94550A06BB0
:10538000324649462046FEF7C3FFB5F1FF3F04D041
:10539000681C84F845000120EBE7606A0028FAD019
:1053A00004F1240000F00CFA0028F4D0002FF2D011
:1053B00001203860EFE700002DE9F74783B004468D
:1053C0008A460025002C03D0BAF1000F08D011E066
:1053D000502080F31188BFF34F8FBFF36F8FFEE72C
:1053E000206C38B1502080F31188BFF34F8FBFF38A
:1053F0006F8FFEE700F02AF948B9059838B15020C0
:1054000080F31188BFF34F8FBFF36F8FFEE7DFF894
:10541000EC9000274FF08058FFF7CCFBA66BC6B18D
:1054200051462046FEF762FF701EA063206950B10E
:1054300004F1100000F0C4F928B1C9F80080BFF3EE
:105440004F8FBFF36F8FFFF7D5FB06B00120BDE88C
:10545000F087059808B135B109E0FFF7CBFB06B03E
:105460000020BDE8F0876846FFF7AAFC0125FFF79A
:10547000C1FBFFF733FDFFF79DFB94F94400B0F14A
:10548000FF3F01D184F8447094F94500B0F1FF3F2B
:1054900001D184F84570FFF7ADFB05A9684600F01F
:1054A0002FF868B12046FFF74DFA00F0C5F9204605
:1054B000FFF7B4F80028AFD006B00020BDE8F087B1
:1054C0002046FFF7ABF890B1059904F12400FFF7EF
:1054D00085FC2046FFF736FA00F0AEF900289BD194
:1054E000C9F80080BFF34F8FBFF36F8F94E720465A
:1054F000FFF728FA00F0A0F98EE7000004ED00E0C5
:1055000070B505460C46002D15D0E4B1FFF752FBEF
:10551000DFF868C0DCF80C006B68C11A2268B2F1D1
:10552000FF3F18D02E68DCF820C0664515D08342B6
:1055300013D801241DE0502080F31188BFF34F8F52
:10554000BFF36F8FFEE7502080F31188BFF34F8FBA
:10555000BFF36F8FFEE700240BE08A4206D9501A92
:1055600020602846FFF72CFC002402E00020206089
:105570000124FFF73FFB204670BD00001800002407
:105580002DE9F04F85B081468A4690469B460F9F95
:105590000E9E4FEA8800FFF709FA054628000AD058
:1055A0005C20FFF703FA04460CB1256304E02846AB
:1055B000FFF736FB00E000249CB1002084F859007E
:1055C0005B46424651460197009602940390484636
:1055D000FEF755FF2046FEF7F7FD05B00120BDE8B8
:1055E000F08F05B04FF0FF30BDE8F08F70B586B09A
:1055F0000646DDF828C00C9C0B98002816D0ECB1AC
:105600005C2504952063022084F85900002005AD34
:10561000CDF800C00195029403903046FEF72FFFAD
:105620002046FEF7D1FD059806B070BD502080F3EE
:105630001188BFF34F8FBFF36F8FFEE7502080F3C9
:105640001188BFF34F8FBFF36F8FFEE705484169A5
:10565000002903D0006B18B100207047012070476B
:1056600002207047180000240148C06870470000FD
:10567000180000242DE9F04100262F4F386B002838
:1056800005D0B869401CB8613046BDE8F081F868C3
:10569000451CFD609DB9786B006838B1502080F3DF
:1056A0001188BFF34F8FBFF36F8FFEE7786BB96B35
:1056B0007963B863386A401C3862FFF7BDF8B86A8E
:1056C000DFF8788085420DD3786B006838B1786B4D
:1056D000C068C4686068854212D2B86202E04FF0C8
:1056E000FF30B8623868C06A00EB800058F82000CC
:1056F000012800D90126F8690028C5D00126C3E792
:10570000201DFFF7F5F9A06A18B104F11800FFF7A2
:10571000EFF9E16A3869814200D9396101EB810012
:10572000211D08EB8000FFF738FAE06A3968C96A82
:105730008842C9D30126C7E7180000244C02002480
:1057400070B504460021002833D01B4D28688442E0
:1057500007D0502080F31188BFF34F8FBFF36F8FB6
:10576000FEE7206D38B1401E2065E36CE26A9A4284
:105770001FD040B11DE0502080F31188BFF34F8F40
:10578000BFF36F8FFEE7201DFFF7B2F9E06CE06218
:10579000C0F13800A061E06A2969884200D9286117
:1057A00000EB8000054901EB8000211DFFF7F5F9B2
:1057B0000121084670BD0000180000244C0200249E
:1057C00070B5C068C468002C14D004F11800FFF74D
:1057D0008FF9164D286BA8B1154804F11801FFF791
:1057E000DCF9E06A2968C96A88421CD901200121D4
:1057F000E96170BD502080F31188BFF34F8FBFF374
:105800006F8FFEE7201DFFF773F9E06A2969884270
:1058100000D9286100EB8000064901EB8000211DC2
:10582000FFF7BBF9DDE7002070BD00001800002481
:10583000D40600244C0200242DE9F0470024002760
:105840002D4D286B002807D0FFF7B4F9286B401EB8
:105850002863286B40B149E0502080F31188BFF3E2
:105860004F8FBFF36F8FFEE7A86800283ED0234E0E
:1058700030684FF0010800B3A6F59169F068C4687C
:1058800004F11800FFF734F9201DFFF731F9E06A41
:105890002969884200D9286100EB8000211D09EBAD
:1058A0008000FFF77AF9E06A2968C96A884201D363
:1058B000C5F81C8030680028E0D10CB1FEF7BCFFB1
:1058C000AC694CB1FFF7D6FE08B1C5F81C80641E68
:1058D000002CF7D10020A861E86938B101270849F8
:1058E00038070860BFF34F8FBFF36F8FFFF782F960
:1058F0003846BDE8F087000018000024D4060024D4
:1059000004ED00E030B587B00024FEF7A1FC134D94
:105910002868B0B100200690059004AA05A906A841
:10592000FFF704F9059902220698002300920290DD
:105930000D48049A01910AA1FFF758FE686000B172
:10594000012414B107B0204630BD502080F31188E7
:10595000BFF34F8FBFF36F8FFEE7000054000024AA
:10596000546D72205376630031490008F0B585B05C
:10597000844616461F460A9D0022BCF1000F14D033
:10598000164C206800B300910196CDF808C0062996
:105990001BDAFFF75BFE02280FD0002320681A46AF
:1059A0006946FFF7F1FB024615E0502080F31188AD
:1059B000BFF34F8FBFF36F8FFEE7206800232A46A7
:1059C0006946FFF7E1FB024605E000233A466946D7
:1059D000FFF792FC024605B01046F0BD54000024CB
:1059E0004FF04070E1EE100A70470000485A00087E
:1059F00000000000000000000000000000000000A7
:105A0000000200001800000000000000000000007C
:105A1000010002000400060008000A000C0010004B
:105A20002000400080000001010101030701000087
:105A3000080402040801010100000000010203043F
:105A4000010203040607080964656661756C7454F5
:105A500061736B00745A0008000000249800000075
:105A6000D40200080C5B000898000024A850000035
:105A7000F00200080000000001000000100000001B
:105A8000000000000090D0030090D0030000000050
:105A90000000000000000000000000000000000006
:105AA00000000000000000000000000000000000F6
:105AB00000000000000000000000000000000000E6
:105AC00000000000000000000000000000000000D6
:105AD00000000000000000000000000000000000C6
